{
  "_format": "hh-sol-artifact-1",
  "contractName": "POCP",
  "sourceName": "contracts/POCP.sol",
  "abi": [
    {
      "anonymous": false,
      "inputs": [
        {
          "indexed": false,
          "internalType": "address",
          "name": "previousAdmin",
          "type": "address"
        },
        {
          "indexed": false,
          "internalType": "address",
          "name": "newAdmin",
          "type": "address"
        }
      ],
      "name": "AdminChanged",
      "type": "event"
    },
    {
      "anonymous": false,
      "inputs": [
        {
          "indexed": true,
          "internalType": "address",
          "name": "owner",
          "type": "address"
        },
        {
          "indexed": true,
          "internalType": "address",
          "name": "approved",
          "type": "address"
        },
        {
          "indexed": true,
          "internalType": "uint256",
          "name": "tokenId",
          "type": "uint256"
        }
      ],
      "name": "Approval",
      "type": "event"
    },
    {
      "anonymous": false,
      "inputs": [
        {
          "indexed": true,
          "internalType": "address",
          "name": "owner",
          "type": "address"
        },
        {
          "indexed": true,
          "internalType": "address",
          "name": "operator",
          "type": "address"
        },
        {
          "indexed": false,
          "internalType": "bool",
          "name": "approved",
          "type": "bool"
        }
      ],
      "name": "ApprovalForAll",
      "type": "event"
    },
    {
      "anonymous": false,
      "inputs": [
        {
          "indexed": false,
          "internalType": "uint256",
          "name": "communityId",
          "type": "uint256"
        },
        {
          "indexed": false,
          "internalType": "bytes32",
          "name": "customIdentifier",
          "type": "bytes32"
        },
        {
          "indexed": false,
          "internalType": "uint256",
          "name": "tokenId",
          "type": "uint256"
        }
      ],
      "name": "ApprovedBadge",
      "type": "event"
    },
    {
      "anonymous": false,
      "inputs": [
        {
          "indexed": true,
          "internalType": "uint256",
          "name": "communityId",
          "type": "uint256"
        },
        {
          "indexed": true,
          "internalType": "address",
          "name": "account",
          "type": "address"
        }
      ],
      "name": "ApproverAdded",
      "type": "event"
    },
    {
      "anonymous": false,
      "inputs": [
        {
          "indexed": true,
          "internalType": "uint256",
          "name": "communityId",
          "type": "uint256"
        },
        {
          "indexed": true,
          "internalType": "address",
          "name": "account",
          "type": "address"
        }
      ],
      "name": "ApproverRemoved",
      "type": "event"
    },
    {
      "anonymous": false,
      "inputs": [
        {
          "indexed": true,
          "internalType": "address",
          "name": "beacon",
          "type": "address"
        }
      ],
      "name": "BeaconUpgraded",
      "type": "event"
    },
    {
      "anonymous": false,
      "inputs": [
        {
          "indexed": false,
          "internalType": "uint256",
          "name": "tokenId",
          "type": "uint256"
        },
        {
          "indexed": false,
          "internalType": "uint256",
          "name": "communityId",
          "type": "uint256"
        }
      ],
      "name": "ClaimedBadge",
      "type": "event"
    },
    {
      "anonymous": false,
      "inputs": [
        {
          "indexed": false,
          "internalType": "uint256",
          "name": "communityId",
          "type": "uint256"
        },
        {
          "indexed": false,
          "internalType": "string",
          "name": "communityName",
          "type": "string"
        },
        {
          "indexed": false,
          "internalType": "address",
          "name": "txSigner",
          "type": "address"
        }
      ],
      "name": "CommunityRegistered",
      "type": "event"
    },
    {
      "anonymous": false,
      "inputs": [
        {
          "indexed": false,
          "internalType": "address",
          "name": "account",
          "type": "address"
        }
      ],
      "name": "Paused",
      "type": "event"
    },
    {
      "anonymous": false,
      "inputs": [
        {
          "indexed": true,
          "internalType": "bytes32",
          "name": "role",
          "type": "bytes32"
        },
        {
          "indexed": true,
          "internalType": "bytes32",
          "name": "previousAdminRole",
          "type": "bytes32"
        },
        {
          "indexed": true,
          "internalType": "bytes32",
          "name": "newAdminRole",
          "type": "bytes32"
        }
      ],
      "name": "RoleAdminChanged",
      "type": "event"
    },
    {
      "anonymous": false,
      "inputs": [
        {
          "indexed": true,
          "internalType": "bytes32",
          "name": "role",
          "type": "bytes32"
        },
        {
          "indexed": true,
          "internalType": "address",
          "name": "account",
          "type": "address"
        },
        {
          "indexed": true,
          "internalType": "address",
          "name": "sender",
          "type": "address"
        }
      ],
      "name": "RoleGranted",
      "type": "event"
    },
    {
      "anonymous": false,
      "inputs": [
        {
          "indexed": true,
          "internalType": "bytes32",
          "name": "role",
          "type": "bytes32"
        },
        {
          "indexed": true,
          "internalType": "address",
          "name": "account",
          "type": "address"
        },
        {
          "indexed": true,
          "internalType": "address",
          "name": "sender",
          "type": "address"
        }
      ],
      "name": "RoleRevoked",
      "type": "event"
    },
    {
      "anonymous": false,
      "inputs": [
        {
          "indexed": true,
          "internalType": "address",
          "name": "from",
          "type": "address"
        },
        {
          "indexed": true,
          "internalType": "address",
          "name": "to",
          "type": "address"
        },
        {
          "indexed": true,
          "internalType": "uint256",
          "name": "tokenId",
          "type": "uint256"
        }
      ],
      "name": "Transfer",
      "type": "event"
    },
    {
      "anonymous": false,
      "inputs": [
        {
          "indexed": false,
          "internalType": "address",
          "name": "account",
          "type": "address"
        }
      ],
      "name": "Unpaused",
      "type": "event"
    },
    {
      "anonymous": false,
      "inputs": [
        {
          "indexed": true,
          "internalType": "address",
          "name": "implementation",
          "type": "address"
        }
      ],
      "name": "Upgraded",
      "type": "event"
    },
    {
      "anonymous": false,
      "inputs": [
        {
          "indexed": false,
          "internalType": "uint256",
          "name": "approvedFor",
          "type": "uint256"
        }
      ],
      "name": "Voucher",
      "type": "event"
    },
    {
      "inputs": [],
      "name": "DEFAULT_ADMIN_ROLE",
      "outputs": [
        {
          "internalType": "bytes32",
          "name": "",
          "type": "bytes32"
        }
      ],
      "stateMutability": "view",
      "type": "function"
    },
    {
      "inputs": [],
      "name": "PAUSER_ROLE",
      "outputs": [
        {
          "internalType": "bytes32",
          "name": "",
          "type": "bytes32"
        }
      ],
      "stateMutability": "view",
      "type": "function"
    },
    {
      "inputs": [],
      "name": "UPGRADER_ROLE",
      "outputs": [
        {
          "internalType": "bytes32",
          "name": "",
          "type": "bytes32"
        }
      ],
      "stateMutability": "view",
      "type": "function"
    },
    {
      "inputs": [
        {
          "internalType": "uint256",
          "name": "communityId",
          "type": "uint256"
        },
        {
          "internalType": "address",
          "name": "account",
          "type": "address"
        }
      ],
      "name": "addApprover",
      "outputs": [],
      "stateMutability": "nonpayable",
      "type": "function"
    },
    {
      "inputs": [
        {
          "internalType": "address",
          "name": "to",
          "type": "address"
        },
        {
          "internalType": "uint256",
          "name": "tokenId",
          "type": "uint256"
        }
      ],
      "name": "approve",
      "outputs": [],
      "stateMutability": "nonpayable",
      "type": "function"
    },
    {
      "inputs": [
        {
          "internalType": "uint256",
          "name": "communityId",
          "type": "uint256"
        },
        {
          "internalType": "address[]",
          "name": "approvedFor",
          "type": "address[]"
        },
        {
          "internalType": "string[]",
          "name": "uri",
          "type": "string[]"
        },
        {
          "internalType": "uint256[]",
          "name": "customIdentifier",
          "type": "uint256[]"
        }
      ],
      "name": "approveBadge",
      "outputs": [],
      "stateMutability": "nonpayable",
      "type": "function"
    },
    {
      "inputs": [
        {
          "internalType": "address",
          "name": "owner",
          "type": "address"
        }
      ],
      "name": "balanceOf",
      "outputs": [
        {
          "internalType": "uint256",
          "name": "",
          "type": "uint256"
        }
      ],
      "stateMutability": "view",
      "type": "function"
    },
    {
      "inputs": [
        {
          "internalType": "uint256[]",
          "name": "tokenIds",
          "type": "uint256[]"
        }
      ],
      "name": "claim",
      "outputs": [],
      "stateMutability": "nonpayable",
      "type": "function"
    },
    {
      "inputs": [
        {
          "internalType": "uint256",
          "name": "community_id",
          "type": "uint256"
        }
      ],
      "name": "community",
      "outputs": [
        {
          "components": [
            {
              "internalType": "string",
              "name": "name",
              "type": "string"
            },
            {
              "internalType": "bool",
              "name": "initiated",
              "type": "bool"
            }
          ],
          "internalType": "struct POCP.Community",
          "name": "",
          "type": "tuple"
        }
      ],
      "stateMutability": "view",
      "type": "function"
    },
    {
      "inputs": [
        {
          "internalType": "uint256",
          "name": "communityId",
          "type": "uint256"
        }
      ],
      "name": "communityTokens",
      "outputs": [
        {
          "internalType": "uint256[]",
          "name": "",
          "type": "uint256[]"
        }
      ],
      "stateMutability": "view",
      "type": "function"
    },
    {
      "inputs": [
        {
          "internalType": "bytes32",
          "name": "",
          "type": "bytes32"
        }
      ],
      "name": "daos",
      "outputs": [
        {
          "internalType": "bytes32",
          "name": "",
          "type": "bytes32"
        }
      ],
      "stateMutability": "view",
      "type": "function"
    },
    {
      "inputs": [
        {
          "internalType": "uint256",
          "name": "tokenId",
          "type": "uint256"
        }
      ],
      "name": "getApproved",
      "outputs": [
        {
          "internalType": "address",
          "name": "",
          "type": "address"
        }
      ],
      "stateMutability": "view",
      "type": "function"
    },
    {
      "inputs": [
        {
          "internalType": "bytes32",
          "name": "role",
          "type": "bytes32"
        }
      ],
      "name": "getRoleAdmin",
      "outputs": [
        {
          "internalType": "bytes32",
          "name": "",
          "type": "bytes32"
        }
      ],
      "stateMutability": "view",
      "type": "function"
    },
    {
      "inputs": [],
      "name": "getTrustedForwarder",
      "outputs": [
        {
          "internalType": "address",
          "name": "",
          "type": "address"
        }
      ],
      "stateMutability": "view",
      "type": "function"
    },
    {
      "inputs": [
        {
          "internalType": "bytes32",
          "name": "role",
          "type": "bytes32"
        },
        {
          "internalType": "address",
          "name": "account",
          "type": "address"
        }
      ],
      "name": "grantRole",
      "outputs": [],
      "stateMutability": "nonpayable",
      "type": "function"
    },
    {
      "inputs": [
        {
          "internalType": "bytes32",
          "name": "role",
          "type": "bytes32"
        },
        {
          "internalType": "address",
          "name": "account",
          "type": "address"
        }
      ],
      "name": "hasRole",
      "outputs": [
        {
          "internalType": "bool",
          "name": "",
          "type": "bool"
        }
      ],
      "stateMutability": "view",
      "type": "function"
    },
    {
      "inputs": [
        {
          "internalType": "address",
          "name": "trustedForwarder",
          "type": "address"
        }
      ],
      "name": "initialize",
      "outputs": [],
      "stateMutability": "nonpayable",
      "type": "function"
    },
    {
      "inputs": [
        {
          "internalType": "address",
          "name": "owner",
          "type": "address"
        },
        {
          "internalType": "address",
          "name": "operator",
          "type": "address"
        }
      ],
      "name": "isApprovedForAll",
      "outputs": [
        {
          "internalType": "bool",
          "name": "",
          "type": "bool"
        }
      ],
      "stateMutability": "view",
      "type": "function"
    },
    {
      "inputs": [
        {
          "internalType": "uint256",
          "name": "communityId",
          "type": "uint256"
        },
        {
          "internalType": "address",
          "name": "account",
          "type": "address"
        }
      ],
      "name": "isApprover",
      "outputs": [
        {
          "internalType": "bool",
          "name": "",
          "type": "bool"
        }
      ],
      "stateMutability": "view",
      "type": "function"
    },
    {
      "inputs": [
        {
          "internalType": "address",
          "name": "forwarder",
          "type": "address"
        }
      ],
      "name": "isTrustedForwarder",
      "outputs": [
        {
          "internalType": "bool",
          "name": "",
          "type": "bool"
        }
      ],
      "stateMutability": "view",
      "type": "function"
    },
    {
      "inputs": [],
      "name": "lastId",
      "outputs": [
        {
          "internalType": "uint256",
          "name": "",
          "type": "uint256"
        }
      ],
      "stateMutability": "view",
      "type": "function"
    },
    {
      "inputs": [],
      "name": "name",
      "outputs": [
        {
          "internalType": "string",
          "name": "",
          "type": "string"
        }
      ],
      "stateMutability": "view",
      "type": "function"
    },
    {
      "inputs": [
        {
          "internalType": "uint256",
          "name": "tokenId",
          "type": "uint256"
        }
      ],
      "name": "ownerOf",
      "outputs": [
        {
          "internalType": "address",
          "name": "",
          "type": "address"
        }
      ],
      "stateMutability": "view",
      "type": "function"
    },
    {
      "inputs": [],
      "name": "pause",
      "outputs": [],
      "stateMutability": "nonpayable",
      "type": "function"
    },
    {
      "inputs": [],
      "name": "paused",
      "outputs": [
        {
          "internalType": "bool",
          "name": "",
          "type": "bool"
        }
      ],
      "stateMutability": "view",
      "type": "function"
    },
    {
      "inputs": [],
      "name": "proxiableUUID",
      "outputs": [
        {
          "internalType": "bytes32",
          "name": "",
          "type": "bytes32"
        }
      ],
      "stateMutability": "view",
      "type": "function"
    },
    {
      "inputs": [
        {
          "internalType": "string",
          "name": "communityName",
          "type": "string"
        },
        {
          "internalType": "address[]",
          "name": "approvers",
          "type": "address[]"
        }
      ],
      "name": "register",
      "outputs": [],
      "stateMutability": "nonpayable",
      "type": "function"
    },
    {
      "inputs": [
        {
          "internalType": "uint256",
          "name": "communityId",
          "type": "uint256"
        },
        {
          "internalType": "address",
          "name": "account",
          "type": "address"
        }
      ],
      "name": "removeApprover",
      "outputs": [],
      "stateMutability": "nonpayable",
      "type": "function"
    },
    {
      "inputs": [
        {
          "internalType": "bytes32",
          "name": "role",
          "type": "bytes32"
        },
        {
          "internalType": "address",
          "name": "account",
          "type": "address"
        }
      ],
      "name": "renounceRole",
      "outputs": [],
      "stateMutability": "nonpayable",
      "type": "function"
    },
    {
      "inputs": [
        {
          "internalType": "bytes32",
          "name": "role",
          "type": "bytes32"
        },
        {
          "internalType": "address",
          "name": "account",
          "type": "address"
        }
      ],
      "name": "revokeRole",
      "outputs": [],
      "stateMutability": "nonpayable",
      "type": "function"
    },
    {
      "inputs": [
        {
          "internalType": "address",
          "name": "to",
          "type": "address"
        },
        {
          "internalType": "uint256",
          "name": "tokenId",
          "type": "uint256"
        }
      ],
      "name": "safeMint",
      "outputs": [],
      "stateMutability": "nonpayable",
      "type": "function"
    },
    {
      "inputs": [
        {
          "internalType": "address",
          "name": "from",
          "type": "address"
        },
        {
          "internalType": "address",
          "name": "to",
          "type": "address"
        },
        {
          "internalType": "uint256",
          "name": "tokenId",
          "type": "uint256"
        }
      ],
      "name": "safeTransferFrom",
      "outputs": [],
      "stateMutability": "nonpayable",
      "type": "function"
    },
    {
      "inputs": [
        {
          "internalType": "address",
          "name": "from",
          "type": "address"
        },
        {
          "internalType": "address",
          "name": "to",
          "type": "address"
        },
        {
          "internalType": "uint256",
          "name": "tokenId",
          "type": "uint256"
        },
        {
          "internalType": "bytes",
          "name": "_data",
          "type": "bytes"
        }
      ],
      "name": "safeTransferFrom",
      "outputs": [],
      "stateMutability": "nonpayable",
      "type": "function"
    },
    {
      "inputs": [
        {
          "internalType": "address",
          "name": "operator",
          "type": "address"
        },
        {
          "internalType": "bool",
          "name": "approved",
          "type": "bool"
        }
      ],
      "name": "setApprovalForAll",
      "outputs": [],
      "stateMutability": "nonpayable",
      "type": "function"
    },
    {
      "inputs": [
        {
          "internalType": "bytes4",
          "name": "interfaceId",
          "type": "bytes4"
        }
      ],
      "name": "supportsInterface",
      "outputs": [
        {
          "internalType": "bool",
          "name": "",
          "type": "bool"
        }
      ],
      "stateMutability": "view",
      "type": "function"
    },
    {
      "inputs": [],
      "name": "symbol",
      "outputs": [
        {
          "internalType": "string",
          "name": "",
          "type": "string"
        }
      ],
      "stateMutability": "view",
      "type": "function"
    },
    {
      "inputs": [
        {
          "internalType": "uint256",
          "name": "index",
          "type": "uint256"
        }
      ],
      "name": "tokenByIndex",
      "outputs": [
        {
          "internalType": "uint256",
          "name": "",
          "type": "uint256"
        }
      ],
      "stateMutability": "view",
      "type": "function"
    },
    {
      "inputs": [
        {
          "internalType": "address",
          "name": "owner",
          "type": "address"
        },
        {
          "internalType": "uint256",
          "name": "index",
          "type": "uint256"
        }
      ],
      "name": "tokenOfOwnerByIndex",
      "outputs": [
        {
          "internalType": "uint256",
          "name": "",
          "type": "uint256"
        }
      ],
      "stateMutability": "view",
      "type": "function"
    },
    {
      "inputs": [
        {
          "internalType": "uint256",
          "name": "tokenId",
          "type": "uint256"
        }
      ],
      "name": "tokenURI",
      "outputs": [
        {
          "internalType": "string",
          "name": "",
          "type": "string"
        }
      ],
      "stateMutability": "view",
      "type": "function"
    },
    {
      "inputs": [],
      "name": "totalCommunities",
      "outputs": [
        {
          "internalType": "uint256",
          "name": "",
          "type": "uint256"
        }
      ],
      "stateMutability": "view",
      "type": "function"
    },
    {
      "inputs": [],
      "name": "totalSupply",
      "outputs": [
        {
          "internalType": "uint256",
          "name": "",
          "type": "uint256"
        }
      ],
      "stateMutability": "view",
      "type": "function"
    },
    {
      "inputs": [
        {
          "internalType": "address",
          "name": "from",
          "type": "address"
        },
        {
          "internalType": "address",
          "name": "to",
          "type": "address"
        },
        {
          "internalType": "uint256",
          "name": "tokenId",
          "type": "uint256"
        }
      ],
      "name": "transferFrom",
      "outputs": [],
      "stateMutability": "nonpayable",
      "type": "function"
    },
    {
      "inputs": [],
      "name": "unpause",
      "outputs": [],
      "stateMutability": "nonpayable",
      "type": "function"
    },
    {
      "inputs": [
        {
          "internalType": "address",
          "name": "newImplementation",
          "type": "address"
        }
      ],
      "name": "upgradeTo",
      "outputs": [],
      "stateMutability": "nonpayable",
      "type": "function"
    },
    {
      "inputs": [
        {
          "internalType": "address",
          "name": "newImplementation",
          "type": "address"
        },
        {
          "internalType": "bytes",
          "name": "data",
          "type": "bytes"
        }
      ],
      "name": "upgradeToAndCall",
      "outputs": [],
      "stateMutability": "payable",
      "type": "function"
    },
    {
      "inputs": [
        {
          "internalType": "uint8",
          "name": "tokenId",
          "type": "uint8"
        }
      ],
      "name": "userBadge",
      "outputs": [
        {
          "components": [
            {
              "internalType": "string",
              "name": "uri",
              "type": "string"
            },
            {
              "internalType": "address",
              "name": "approvedBy",
              "type": "address"
            },
            {
              "internalType": "bool",
              "name": "claimed",
              "type": "bool"
            },
            {
              "internalType": "bool",
              "name": "initiated",
              "type": "bool"
            },
            {
              "internalType": "uint256",
              "name": "communityId",
              "type": "uint256"
            }
          ],
          "internalType": "struct POCP.Badge",
          "name": "badge",
          "type": "tuple"
        }
      ],
      "stateMutability": "view",
      "type": "function"
    },
    {
      "inputs": [],
      "name": "userBadgeIds",
      "outputs": [
        {
          "internalType": "uint256[]",
          "name": "badgeIds",
          "type": "uint256[]"
        }
      ],
      "stateMutability": "view",
      "type": "function"
    }
  ],
  "bytecode": "0x60a06040523060601b60805234801561001757600080fd5b5060805160601c61401561005260003960008181610e7d01528181610ebd01528181610f8001528181610fc001526110f001526140156000f3fe6080604052600436106102885760003560e01c80636ba4c1381161015a578063c4d66de8116100c1578063dc349a3b1161007a578063dc349a3b146107a0578063e63ab1e9146107cd578063e985e9c5146107ef578063f080df6814610838578063f72c0d8b14610858578063fcb4d2061461088c57600080fd5b8063c4d66de8146106df578063c87b56dd146106ff578063c9ab9cf61461071f578063ce1b815f14610741578063d3e4047a14610760578063d547741f1461078057600080fd5b8063a217fddf11610113578063a217fddf14610638578063a22cb4651461064d578063b88d4fde1461066d578063bb6c352c14610688578063c1292cc3146106a8578063c3759eb8146106bf57600080fd5b80636ba4c1381461058e57806370a08231146105ae5780638456cb59146105ce57806391d14854146105e357806395d89b4114610603578063a14481941461061857600080fd5b80632faf59d4116101fe5780634f6ccce7116101b75780634f6ccce7146104d157806352d1902d146104f15780635317234e14610506578063572b6c05146105265780635c975abb146105565780636352211e1461056e57600080fd5b80632faf59d41461044957806336568abe146104695780633659cfe6146104895780633f4ba83a146104a957806342842e0e1461038a5780634f1ef286146104be57600080fd5b806318160ddd1161025057806318160ddd1461036b57806323b872dd1461038a578063248a9ca3146103aa5780632f2ff15d146103db5780632f745c59146103fb5780632fa2cc4e1461041b57600080fd5b806301ffc9a71461028d57806306fdde03146102c2578063081812fc146102e4578063095ea7b31461031c57806314de72d41461033e575b600080fd5b34801561029957600080fd5b506102ad6102a836600461384f565b6108a3565b60405190151581526020015b60405180910390f35b3480156102ce57600080fd5b506102d76108b4565b6040516102b99190613b46565b3480156102f057600080fd5b506103046102ff3660046137fd565b610946565b6040516001600160a01b0390911681526020016102b9565b34801561032857600080fd5b5061033c610337366004613794565b6109e0565b005b34801561034a57600080fd5b5061035e6103593660046137fd565b610b08565b6040516102b99190613d36565b34801561037757600080fd5b506099545b6040519081526020016102b9565b34801561039657600080fd5b5061033c6103a536600461366d565b610bde565b3480156103b657600080fd5b5061037c6103c53660046137fd565b60009081526101c6602052604090206001015490565b3480156103e757600080fd5b5061033c6103f636600461382d565b610c1d565b34801561040757600080fd5b5061037c610416366004613794565b610c4b565b34801561042757600080fd5b5061037c6104363660046137fd565b61012d6020526000908152604090205481565b34801561045557600080fd5b5061033c61046436600461386b565b610ce1565b34801561047557600080fd5b5061033c61048436600461382d565b610de4565b34801561049557600080fd5b5061033c6104a4366004613621565b610e72565b3480156104b557600080fd5b5061033c610f52565b61033c6104cc366004613748565b610f75565b3480156104dd57600080fd5b5061037c6104ec3660046137fd565b611042565b3480156104fd57600080fd5b5061037c6110e3565b34801561051257600080fd5b5061033c61052136600461382d565b611196565b34801561053257600080fd5b506102ad610541366004613621565b61022b546001600160a01b0391821691161490565b34801561056257600080fd5b5060fb5460ff166102ad565b34801561057a57600080fd5b506103046105893660046137fd565b6111f3565b34801561059a57600080fd5b5061033c6105a93660046137bd565b61126a565b3480156105ba57600080fd5b5061037c6105c9366004613621565b6114cf565b3480156105da57600080fd5b5061033c611556565b3480156105ef57600080fd5b506102ad6105fe36600461382d565b611579565b34801561060f57600080fd5b506102d76115a5565b34801561062457600080fd5b5061033c610633366004613794565b6115b4565b34801561064457600080fd5b5061037c600081565b34801561065957600080fd5b5061033c61066836600461370e565b6115ef565b34801561067957600080fd5b5061033c6103a53660046136a8565b34801561069457600080fd5b5061033c6106a336600461382d565b611601565b3480156106b457600080fd5b5061037c6102315481565b3480156106cb57600080fd5b506102ad6106da36600461382d565b611658565b3480156106eb57600080fd5b5061033c6106fa366004613621565b611684565b34801561070b57600080fd5b506102d761071a3660046137fd565b6117d7565b34801561072b57600080fd5b506107346117e2565b6040516102b99190613b02565b34801561074d57600080fd5b5061022b546001600160a01b0316610304565b34801561076c57600080fd5b5061073461077b3660046137fd565b611864565b34801561078c57600080fd5b5061033c61079b36600461382d565b6118c7565b3480156107ac57600080fd5b506107c06107bb3660046139f5565b6118f0565b6040516102b99190613cda565b3480156107d957600080fd5b5061037c600080516020613f9983398151915281565b3480156107fb57600080fd5b506102ad61080a36600461363b565b6001600160a01b039182166000908152606a6020908152604080832093909416825291909152205460ff1690565b34801561084457600080fd5b5061033c610853366004613955565b611a40565b34801561086457600080fd5b5061037c7f189ab7a9244df0848122154315af71fe140f3db0fe014031783b0946b8c9d2e381565b34801561089857600080fd5b5061037c61022d5481565b60006108ae82611d96565b92915050565b6060606580546108c390613eb6565b80601f01602080910402602001604051908101604052809291908181526020018280546108ef90613eb6565b801561093c5780601f106109115761010080835404028352916020019161093c565b820191906000526020600020905b81548152906001019060200180831161091f57829003601f168201915b5050505050905090565b6000818152606760205260408120546001600160a01b03166109c45760405162461bcd60e51b815260206004820152602c60248201527f4552433732313a20617070726f76656420717565727920666f72206e6f6e657860448201526b34b9ba32b73a103a37b5b2b760a11b60648201526084015b60405180910390fd5b506000908152606960205260409020546001600160a01b031690565b60006109eb826111f3565b9050806001600160a01b0316836001600160a01b03161415610a595760405162461bcd60e51b815260206004820152602160248201527f4552433732313a20617070726f76616c20746f2063757272656e74206f776e656044820152603960f91b60648201526084016109bb565b806001600160a01b0316610a6b611dbb565b6001600160a01b03161480610a875750610a878161080a611dbb565b610af95760405162461bcd60e51b815260206004820152603860248201527f4552433732313a20617070726f76652063616c6c6572206973206e6f74206f7760448201527f6e6572206e6f7220617070726f76656420666f7220616c6c000000000000000060648201526084016109bb565b610b038383611de4565b505050565b604080518082019091526060815260006020820152600082815261022c6020526040908190208151808301909252805482908290610b4590613eb6565b80601f0160208091040260200160405190810160405280929190818152602001828054610b7190613eb6565b8015610bbe5780601f10610b9357610100808354040283529160200191610bbe565b820191906000526020600020905b815481529060010190602001808311610ba157829003601f168201915b50505091835250506001919091015460ff16151560209091015292915050565b60405162461bcd60e51b8152602060048201526014602482015273151c985b9cd9995c881b9bdd08105b1b1bddd95960621b60448201526064016109bb565b60008281526101c66020526040902060010154610c4181610c3c611dbb565b611e52565b610b038383611eb6565b6000610c56836114cf565b8210610cb85760405162461bcd60e51b815260206004820152602b60248201527f455243373231456e756d657261626c653a206f776e657220696e646578206f7560448201526a74206f6620626f756e647360a81b60648201526084016109bb565b506001600160a01b03919091166000908152609760209081526040808320938352929052205490565b61022d546040805180820182528481526001602080830191909152600084815261022c8252929092208151805192938493610d1f92849201906134ab565b50602091909101516001918201805460ff191691151591909117905561022d54610d4891613e11565b61022d5560005b8351811015610d9b57610d8983858381518110610d7c57634e487b7160e01b600052603260045260246000fd5b6020026020010151611196565b80610d9381613ef1565b915050610d4f565b507face92cf234a98ee3719291804162de627309cddd21cca99a54eae87cce7a98bf8285610dc7611dbb565b604051610dd693929190613d6a565b60405180910390a150505050565b610dec611dbb565b6001600160a01b0316816001600160a01b031614610e645760405162461bcd60e51b815260206004820152602f60248201527f416363657373436f6e74726f6c3a2063616e206f6e6c792072656e6f756e636560448201526e103937b632b9903337b91039b2b63360891b60648201526084016109bb565b610e6e8282611f3e565b5050565b306001600160a01b037f0000000000000000000000000000000000000000000000000000000000000000161415610ebb5760405162461bcd60e51b81526004016109bb90613b59565b7f00000000000000000000000000000000000000000000000000000000000000006001600160a01b0316610f04600080516020613f79833981519152546001600160a01b031690565b6001600160a01b031614610f2a5760405162461bcd60e51b81526004016109bb90613ba5565b610f3381611fc4565b60408051600080825260208201909252610f4f91839190611ff1565b50565b600080516020613f99833981519152610f6d81610c3c611dbb565b610f4f61216b565b306001600160a01b037f0000000000000000000000000000000000000000000000000000000000000000161415610fbe5760405162461bcd60e51b81526004016109bb90613b59565b7f00000000000000000000000000000000000000000000000000000000000000006001600160a01b0316611007600080516020613f79833981519152546001600160a01b031690565b6001600160a01b03161461102d5760405162461bcd60e51b81526004016109bb90613ba5565b61103682611fc4565b610e6e82826001611ff1565b600061104d60995490565b82106110b05760405162461bcd60e51b815260206004820152602c60248201527f455243373231456e756d657261626c653a20676c6f62616c20696e646578206f60448201526b7574206f6620626f756e647360a01b60648201526084016109bb565b609982815481106110d157634e487b7160e01b600052603260045260246000fd5b90600052602060002001549050919050565b6000306001600160a01b037f000000000000000000000000000000000000000000000000000000000000000016146111835760405162461bcd60e51b815260206004820152603860248201527f555550535570677261646561626c653a206d757374206e6f742062652063616c60448201527f6c6564207468726f7567682064656c656761746563616c6c000000000000000060648201526084016109bb565b50600080516020613f7983398151915290565b8161119f611dbb565b6111a98282611658565b806111c7575060008281526101f8602052604090206001015460ff16155b6111e35760405162461bcd60e51b81526004016109bb90613c69565b6111ed8484612204565b50505050565b6000818152606760205260408120546001600160a01b0316806108ae5760405162461bcd60e51b815260206004820152602960248201527f4552433732313a206f776e657220717565727920666f72206e6f6e657869737460448201526832b73a103a37b5b2b760b91b60648201526084016109bb565b60fb5460ff161561128d5760405162461bcd60e51b81526004016109bb90613bf1565b806112d35760405162461bcd60e51b8152602060048201526016602482015275746f6b656e496473206c69737420697320656d70747960501b60448201526064016109bb565b60005b81811015610b0357600083838381811061130057634e487b7160e01b600052603260045260246000fd5b905060200201359050600061022f6000611318611dbb565b6001600160a01b031681526020808201929092526040908101600090812085825290925290206001810154909150600160a01b900460ff1615801561136c5750600181810154600160a81b900460ff161515145b156114ba576001810154611389906001600160a01b031683612289565b61141f8282600001805461139c90613eb6565b80601f01602080910402602001604051908101604052809291908181526020018280546113c890613eb6565b80156114155780601f106113ea57610100808354040283529160200191611415565b820191906000526020600020905b8154815290600101906020018083116113f857829003601f168201915b50505050506123d7565b60028101546040805184815260208101929092527f0c86f3fbd292584ffcc982f3252f26626221d8953c2d1a00ce6ef24a906cb720910160405180910390a1600181015461147e906001600160a01b0316611478611dbb565b84612471565b6001818101805460ff60a01b1916600160a01b1790556002820154600090815261022e6020908152604082208054938401815582529020018290555b505080806114c790613ef1565b9150506112d6565b60006001600160a01b03821661153a5760405162461bcd60e51b815260206004820152602a60248201527f4552433732313a2062616c616e636520717565727920666f7220746865207a65604482015269726f206164647265737360b01b60648201526084016109bb565b506001600160a01b031660009081526068602052604090205490565b600080516020613f9983398151915261157181610c3c611dbb565b610f4f612618565b60009182526101c6602090815260408084206001600160a01b0393909316845291905290205460ff1690565b6060606680546108c390613eb6565b60405162461bcd60e51b815260206004820152601060248201526f135a5b9d081b9bdd08105b1b1bddd95960821b60448201526064016109bb565b610e6e6115fa611dbb565b8383612671565b8161160a611dbb565b6116148282611658565b80611632575060008281526101f8602052604090206001015460ff16155b61164e5760405162461bcd60e51b81526004016109bb90613c69565b6111ed8484612740565b60009182526101f8602090815260408084206001600160a01b0393909316845291905290205460ff1690565b600054610100900460ff1661169f5760005460ff16156116a3565b303b155b6116bf5760405162461bcd60e51b81526004016109bb90613c1b565b600054610100900460ff161580156116e1576000805461ffff19166101011790555b611723604051806040016040528060048152602001630504f43560e41b815250604051806040016040528060048152602001630504f43560e41b8152506127a8565b61172b6127d9565b6117336127d9565b61173b612802565b6117436127d9565b6117926040518060400160405280601081526020016f26b4b734b6b0b62337b93bb0b93232b960811b81525060405180604001604052806005815260200164302e302e3160d81b815250612831565b61179a612862565b61022b80546001600160a01b0319166001600160a01b038416179055600061022d556001610231558015610e6e576000805461ff00191690555050565b60606108ae82612933565b606061023060006117f1611dbb565b6001600160a01b03166001600160a01b0316815260200190815260200160002080548060200260200160405190810160405280929190818152602001828054801561093c57602002820191906000526020600020905b815481526020019060010190808311611847575050505050905090565b600081815261022e60209081526040918290208054835181840281018401909452808452606093928301828280156118bb57602002820191906000526020600020905b8154815260200190600101908083116118a7575b50505050509050919050565b60008281526101c660205260409020600101546118e681610c3c611dbb565b610b038383611f3e565b6040805160a08101825260608082526000602083018190529282018390528101829052608081019190915261022f6000611928611dbb565b6001600160a01b03166001600160a01b0316815260200190815260200160002060008360ff1681526020019081526020016000206040518060a001604052908160008201805461197790613eb6565b80601f01602080910402602001604051908101604052809291908181526020018280546119a390613eb6565b80156119f05780601f106119c5576101008083540402835291602001916119f0565b820191906000526020600020905b8154815290600101906020018083116119d357829003601f168201915b505050918352505060018201546001600160a01b038116602083015260ff600160a01b8204811615156040840152600160a81b909104161515606082015260029091015460809091015292915050565b60fb5460ff1615611a635760405162461bcd60e51b81526004016109bb90613bf1565b86611a6c611dbb565b611a768282611658565b80611a94575060008281526101f8602052604090206001015460ff16155b611ab05760405162461bcd60e51b81526004016109bb90613c69565b8685148015611abe57508483145b611b015760405162461bcd60e51b815260206004820152601460248201527320b933bab6b2b73a1034b7383aba1032b93937b960611b60448201526064016109bb565b60005b87811015611d8a576040518060a00160405280888884818110611b3757634e487b7160e01b600052603260045260246000fd5b9050602002810190611b499190613d9b565b8080601f016020809104026020016040519081016040528093929190818152602001838380828437600092019190915250505090825250602001611b8b611dbb565b6001600160a01b031681526000602082018190526001604083015260609091018c905261022f908b8b85818110611bd257634e487b7160e01b600052603260045260246000fd5b9050602002016020810190611be79190613621565b6001600160a01b0316815260208082019290925260409081016000908120610231548252835220825180519192611c23928492909101906134ab565b506020820151600182018054604085015160608601511515600160a81b0260ff60a81b19911515600160a01b026001600160a81b03199093166001600160a01b0390951694909417919091171691909117905560809091015160029091015561023060008a8a84818110611ca757634e487b7160e01b600052603260045260246000fd5b9050602002016020810190611cbc9190613621565b6001600160a01b0316815260208082019290925260400160009081206102315481546001810183559183529290912001557fd8c8c423e1a1436285bce436a6fd847238b0e3ade5533e91715ce6052e6501b68a868684818110611d2f57634e487b7160e01b600052603260045260246000fd5b9050602002013560001b61023154604051611d5d939291909283526020830191909152604082015260600190565b60405180910390a161023154611d74906001613e11565b6102315580611d8281613ef1565b915050611b04565b50505050505050505050565b60006001600160e01b03198216637965db0b60e01b14806108ae57506108ae82612aba565b61022b546000906001600160a01b0316331415611ddf575060131936013560601c90565b503390565b600081815260696020526040902080546001600160a01b0319166001600160a01b0384169081179091558190611e19826111f3565b6001600160a01b03167f8c5be1e5ebec7d5bd14f71427d1e84f3dd0314c0f7b2291e5b200ac8c7c3b92560405160405180910390a45050565b611e5c8282611579565b610e6e57611e74816001600160a01b03166014612adf565b611e7f836020612adf565b604051602001611e90929190613a8d565b60408051601f198184030181529082905262461bcd60e51b82526109bb91600401613b46565b611ec08282611579565b610e6e5760008281526101c6602090815260408083206001600160a01b03851684529091529020805460ff19166001179055611efa611dbb565b6001600160a01b0316816001600160a01b0316837f2f8788117e7eff1d82e926ec794901d17c78024a50270940304540a733656f0d60405160405180910390a45050565b611f488282611579565b15610e6e5760008281526101c6602090815260408083206001600160a01b03851684529091529020805460ff19169055611f80611dbb565b6001600160a01b0316816001600160a01b0316837ff6391f5c32d9c69d2a47ea670b442974b53935d1edc7fd64eb21e047a839171b60405160405180910390a45050565b7f189ab7a9244df0848122154315af71fe140f3db0fe014031783b0946b8c9d2e3610e6e81610c3c611dbb565b7f4910fdfa16fed3260ed0e7147f7cc6da11a60208b5b9406d12a635614ffd91435460ff161561202457610b0383612cc8565b826001600160a01b03166352d1902d6040518163ffffffff1660e01b815260040160206040518083038186803b15801561205d57600080fd5b505afa92505050801561208d575060408051601f3d908101601f1916820190925261208a91810190613815565b60015b6120f05760405162461bcd60e51b815260206004820152602e60248201527f45524331393637557067726164653a206e657720696d706c656d656e7461746960448201526d6f6e206973206e6f74205555505360901b60648201526084016109bb565b600080516020613f79833981519152811461215f5760405162461bcd60e51b815260206004820152602960248201527f45524331393637557067726164653a20756e737570706f727465642070726f786044820152681a58589b195555525160ba1b60648201526084016109bb565b50610b03838383612d64565b60fb5460ff166121b45760405162461bcd60e51b815260206004820152601460248201527314185d5cd8589b194e881b9bdd081c185d5cd95960621b60448201526064016109bb565b60fb805460ff191690557f5db9ee0a495bf2e6ff9c91a7834c1ba4fdd244a5e8aa4e537bd38aeae4b073aa6121e7611dbb565b6040516001600160a01b03909116815260200160405180910390a1565b61220e8282611658565b610e6e5760008281526101f8602081815260408084206001600160a01b0386168086528184528286208054600160ff1991821681179092558988529590945290830180549094169092179092559051909184917feca5cd72207e44a6cfefd583fd8df9a5498c3930b1c274e1a1c6d6318ba0cac49190a35050565b6001600160a01b0382166122df5760405162461bcd60e51b815260206004820181905260248201527f4552433732313a206d696e7420746f20746865207a65726f206164647265737360448201526064016109bb565b6000818152606760205260409020546001600160a01b0316156123445760405162461bcd60e51b815260206004820152601c60248201527f4552433732313a20746f6b656e20616c7265616479206d696e7465640000000060448201526064016109bb565b61235060008383612d89565b6001600160a01b0382166000908152606860205260408120805460019290612379908490613e11565b909155505060008181526067602052604080822080546001600160a01b0319166001600160a01b03861690811790915590518392907fddf252ad1be2c89b69c2b068fc378daa952ba7f163c4a11628f55a4df523b3ef908290a45050565b6000828152606760205260409020546001600160a01b03166124525760405162461bcd60e51b815260206004820152602e60248201527f45524337323155524953746f726167653a2055524920736574206f66206e6f6e60448201526d32bc34b9ba32b73a103a37b5b2b760911b60648201526084016109bb565b600082815260c9602090815260409091208251610b03928401906134ab565b826001600160a01b0316612484826111f3565b6001600160a01b0316146124e85760405162461bcd60e51b815260206004820152602560248201527f4552433732313a207472616e736665722066726f6d20696e636f72726563742060448201526437bbb732b960d91b60648201526084016109bb565b6001600160a01b03821661254a5760405162461bcd60e51b8152602060048201526024808201527f4552433732313a207472616e7366657220746f20746865207a65726f206164646044820152637265737360e01b60648201526084016109bb565b612555838383612d89565b612560600082611de4565b6001600160a01b0383166000908152606860205260408120805460019290612589908490613e5c565b90915550506001600160a01b03821660009081526068602052604081208054600192906125b7908490613e11565b909155505060008181526067602052604080822080546001600160a01b0319166001600160a01b0386811691821790925591518493918716917fddf252ad1be2c89b69c2b068fc378daa952ba7f163c4a11628f55a4df523b3ef91a4505050565b60fb5460ff161561263b5760405162461bcd60e51b81526004016109bb90613bf1565b60fb805460ff191660011790557f62e78cea01bee320cd4e420270b5ea74000d11b0c9f74754ebdbfc544b05a2586121e7611dbb565b816001600160a01b0316836001600160a01b031614156126d35760405162461bcd60e51b815260206004820152601960248201527f4552433732313a20617070726f766520746f2063616c6c65720000000000000060448201526064016109bb565b6001600160a01b038381166000818152606a6020908152604080832094871680845294825291829020805460ff191686151590811790915591519182527f17307eab39ab6107e8899845ad3d59bd9653f200f220920489ca2b5937696c31910160405180910390a3505050565b61274a8282611658565b15610e6e5760008281526101f8602090815260408083206001600160a01b0385168085529252808320805460ff1916905551909184917f708f1c3522caddc3f4266f87a63148078e0803ccc35ab7b4bc729f5863f463539190a35050565b600054610100900460ff166127cf5760405162461bcd60e51b81526004016109bb90613c8f565b610e6e8282612db7565b600054610100900460ff166128005760405162461bcd60e51b81526004016109bb90613c8f565b565b600054610100900460ff166128295760405162461bcd60e51b81526004016109bb90613c8f565b612800612e05565b600054610100900460ff166128585760405162461bcd60e51b81526004016109bb90613c8f565b610e6e8282612e38565b600054610100900460ff1661287d5760005460ff1615612881565b303b155b61289d5760405162461bcd60e51b81526004016109bb90613c1b565b600054610100900460ff161580156128bf576000805461ffff19166101011790555b6128c76127d9565b6128d960006128d4611dbb565b611eb6565b6128f3600080516020613f998339815191526128d4611dbb565b61291f7f189ab7a9244df0848122154315af71fe140f3db0fe014031783b0946b8c9d2e36128d4611dbb565b8015610f4f576000805461ff001916905550565b6000818152606760205260409020546060906001600160a01b03166129b45760405162461bcd60e51b815260206004820152603160248201527f45524337323155524953746f726167653a2055524920717565727920666f72206044820152703737b732bc34b9ba32b73a103a37b5b2b760791b60648201526084016109bb565b600082815260c96020526040812080546129cd90613eb6565b80601f01602080910402602001604051908101604052809291908181526020018280546129f990613eb6565b8015612a465780601f10612a1b57610100808354040283529160200191612a46565b820191906000526020600020905b815481529060010190602001808311612a2957829003601f168201915b505050505090506000612a6460408051602081019091526000815290565b9050805160001415612a77575092915050565b815115612aa9578082604051602001612a91929190613a5e565b60405160208183030381529060405292505050919050565b612ab284612e7b565b949350505050565b60006001600160e01b0319821663780e9d6360e01b14806108ae57506108ae82612f62565b60606000612aee836002613e3d565b612af9906002613e11565b67ffffffffffffffff811115612b1f57634e487b7160e01b600052604160045260246000fd5b6040519080825280601f01601f191660200182016040528015612b49576020820181803683370190505b509050600360fc1b81600081518110612b7257634e487b7160e01b600052603260045260246000fd5b60200101906001600160f81b031916908160001a905350600f60fb1b81600181518110612baf57634e487b7160e01b600052603260045260246000fd5b60200101906001600160f81b031916908160001a9053506000612bd3846002613e3d565b612bde906001613e11565b90505b6001811115612c72576f181899199a1a9b1b9c1cb0b131b232b360811b85600f1660108110612c2057634e487b7160e01b600052603260045260246000fd5b1a60f81b828281518110612c4457634e487b7160e01b600052603260045260246000fd5b60200101906001600160f81b031916908160001a90535060049490941c93612c6b81613e9f565b9050612be1565b508315612cc15760405162461bcd60e51b815260206004820181905260248201527f537472696e67733a20686578206c656e67746820696e73756666696369656e7460448201526064016109bb565b9392505050565b6001600160a01b0381163b612d355760405162461bcd60e51b815260206004820152602d60248201527f455243313936373a206e657720696d706c656d656e746174696f6e206973206e60448201526c1bdd08184818dbdb9d1c9858dd609a1b60648201526084016109bb565b600080516020613f7983398151915280546001600160a01b0319166001600160a01b0392909216919091179055565b612d6d83612fb2565b600082511180612d7a5750805b15610b03576111ed8383612ff2565b60fb5460ff1615612dac5760405162461bcd60e51b81526004016109bb90613bf1565b610b038383836130e6565b600054610100900460ff16612dde5760405162461bcd60e51b81526004016109bb90613c8f565b8151612df19060659060208501906134ab565b508051610b039060669060208401906134ab565b600054610100900460ff16612e2c5760405162461bcd60e51b81526004016109bb90613c8f565b60fb805460ff19169055565b600054610100900460ff16612e5f5760405162461bcd60e51b81526004016109bb90613c8f565b8151602092830120815191909201206101929190915561019355565b6000818152606760205260409020546060906001600160a01b0316612efa5760405162461bcd60e51b815260206004820152602f60248201527f4552433732314d657461646174613a2055524920717565727920666f72206e6f60448201526e3732bc34b9ba32b73a103a37b5b2b760891b60648201526084016109bb565b6000612f1160408051602081019091526000815290565b90506000815111612f315760405180602001604052806000815250612cc1565b80612f3b8461319e565b604051602001612f4c929190613a5e565b6040516020818303038152906040529392505050565b60006001600160e01b031982166380ac58cd60e01b1480612f9357506001600160e01b03198216635b5e139f60e01b145b806108ae57506301ffc9a760e01b6001600160e01b03198316146108ae565b612fbb81612cc8565b6040516001600160a01b038216907fbc7cd75a20ee27fd9adebab32041f755214dbc6bffa90cc0225b39da2e5c2d3b90600090a250565b60606001600160a01b0383163b61305a5760405162461bcd60e51b815260206004820152602660248201527f416464726573733a2064656c65676174652063616c6c20746f206e6f6e2d636f6044820152651b9d1c9858dd60d21b60648201526084016109bb565b600080846001600160a01b0316846040516130759190613a42565b600060405180830381855af49150503d80600081146130b0576040519150601f19603f3d011682016040523d82523d6000602084013e6130b5565b606091505b50915091506130dd8282604051806060016040528060278152602001613fb9602791396132b8565b95945050505050565b6001600160a01b0383166131415761313c81609980546000838152609a60205260408120829055600182018355919091527f72a152ddfb8e864297c917af52ea6c1c68aead0fee1a62673fcc7e0c94979d000155565b613164565b816001600160a01b0316836001600160a01b0316146131645761316483826132f1565b6001600160a01b03821661317b57610b038161338e565b826001600160a01b0316826001600160a01b031614610b0357610b038282613467565b6060816131c25750506040805180820190915260018152600360fc1b602082015290565b8160005b81156131ec57806131d681613ef1565b91506131e59050600a83613e29565b91506131c6565b60008167ffffffffffffffff81111561321557634e487b7160e01b600052604160045260246000fd5b6040519080825280601f01601f19166020018201604052801561323f576020820181803683370190505b5090505b8415612ab257613254600183613e5c565b9150613261600a86613f0c565b61326c906030613e11565b60f81b81838151811061328f57634e487b7160e01b600052603260045260246000fd5b60200101906001600160f81b031916908160001a9053506132b1600a86613e29565b9450613243565b606083156132c7575081612cc1565b8251156132d75782518084602001fd5b8160405162461bcd60e51b81526004016109bb9190613b46565b600060016132fe846114cf565b6133089190613e5c565b60008381526098602052604090205490915080821461335b576001600160a01b03841660009081526097602090815260408083208584528252808320548484528184208190558352609890915290208190555b5060009182526098602090815260408084208490556001600160a01b039094168352609781528383209183525290812055565b6099546000906133a090600190613e5c565b6000838152609a6020526040812054609980549394509092849081106133d657634e487b7160e01b600052603260045260246000fd5b90600052602060002001549050806099838154811061340557634e487b7160e01b600052603260045260246000fd5b6000918252602080832090910192909255828152609a9091526040808220849055858252812055609980548061344b57634e487b7160e01b600052603160045260246000fd5b6001900381819060005260206000200160009055905550505050565b6000613472836114cf565b6001600160a01b039093166000908152609760209081526040808320868452825280832085905593825260989052919091209190915550565b8280546134b790613eb6565b90600052602060002090601f0160209004810192826134d9576000855561351f565b82601f106134f257805160ff191683800117855561351f565b8280016001018555821561351f579182015b8281111561351f578251825591602001919060010190613504565b5061352b92915061352f565b5090565b5b8082111561352b5760008155600101613530565b600067ffffffffffffffff83111561355e5761355e613f4c565b613571601f8401601f1916602001613de0565b905082815283838301111561358557600080fd5b828260208301376000602084830101529392505050565b80356001600160a01b03811681146135b357600080fd5b919050565b60008083601f8401126135c9578182fd5b50813567ffffffffffffffff8111156135e0578182fd5b6020830191508360208260051b85010111156135fb57600080fd5b9250929050565b600082601f830112613612578081fd5b612cc183833560208501613544565b600060208284031215613632578081fd5b612cc18261359c565b6000806040838503121561364d578081fd5b6136568361359c565b91506136646020840161359c565b90509250929050565b600080600060608486031215613681578081fd5b61368a8461359c565b92506136986020850161359c565b9150604084013590509250925092565b600080600080608085870312156136bd578081fd5b6136c68561359c565b93506136d46020860161359c565b925060408501359150606085013567ffffffffffffffff8111156136f6578182fd5b61370287828801613602565b91505092959194509250565b60008060408385031215613720578182fd5b6137298361359c565b91506020830135801515811461373d578182fd5b809150509250929050565b6000806040838503121561375a578182fd5b6137638361359c565b9150602083013567ffffffffffffffff81111561377e578182fd5b61378a85828601613602565b9150509250929050565b600080604083850312156137a6578182fd5b6137af8361359c565b946020939093013593505050565b600080602083850312156137cf578081fd5b823567ffffffffffffffff8111156137e5578182fd5b6137f1858286016135b8565b90969095509350505050565b60006020828403121561380e578081fd5b5035919050565b600060208284031215613826578081fd5b5051919050565b6000806040838503121561383f578182fd5b823591506136646020840161359c565b600060208284031215613860578081fd5b8135612cc181613f62565b6000806040838503121561387d578182fd5b823567ffffffffffffffff80821115613894578384fd5b818501915085601f8301126138a7578384fd5b60206138b7878435838601613544565b9450808601359250818311156138cb578384fd5b828601925086601f8401126138de578384fd5b8235828111156138f0576138f0613f4c565b8060051b9250613901828401613de0565b8181528281019085840185870185018b101561391b578788fd5b8796505b83871015613944576139308161359c565b83526001969096019591840191840161391f565b508096505050505050509250929050565b60008060008060008060006080888a03121561396f578485fd5b87359650602088013567ffffffffffffffff8082111561398d578687fd5b6139998b838c016135b8565b909850965060408a01359150808211156139b1578485fd5b6139bd8b838c016135b8565b909650945060608a01359150808211156139d5578384fd5b506139e28a828b016135b8565b989b979a50959850939692959293505050565b600060208284031215613a06578081fd5b813560ff81168114612cc1578182fd5b60008151808452613a2e816020860160208601613e73565b601f01601f19169290920160200192915050565b60008251613a54818460208701613e73565b9190910192915050565b60008351613a70818460208801613e73565b835190830190613a84818360208801613e73565b01949350505050565b7f416363657373436f6e74726f6c3a206163636f756e7420000000000000000000815260008351613ac5816017850160208801613e73565b7001034b99036b4b9b9b4b733903937b6329607d1b6017918401918201528351613af6816028840160208801613e73565b01602801949350505050565b6020808252825182820181905260009190848201906040850190845b81811015613b3a57835183529284019291840191600101613b1e565b50909695505050505050565b602081526000612cc16020830184613a16565b6020808252602c908201527f46756e6374696f6e206d7573742062652063616c6c6564207468726f7567682060408201526b19195b1959d85d1958d85b1b60a21b606082015260800190565b6020808252602c908201527f46756e6374696f6e206d7573742062652063616c6c6564207468726f7567682060408201526b6163746976652070726f787960a01b606082015260800190565b60208082526010908201526f14185d5cd8589b194e881c185d5cd95960821b604082015260600190565b6020808252602e908201527f496e697469616c697a61626c653a20636f6e747261637420697320616c72656160408201526d191e481a5b9a5d1a585b1a5e995960921b606082015260800190565b6020808252600c908201526b2737ba1020b8383937bb32b960a11b604082015260600190565b6020808252602b908201527f496e697469616c697a61626c653a20636f6e7472616374206973206e6f74206960408201526a6e697469616c697a696e6760a81b606082015260800190565b602081526000825160a06020840152613cf660c0840182613a16565b905060018060a01b036020850151166040840152604084015115156060840152606084015115156080840152608084015160a08401528091505092915050565b602081526000825160406020840152613d526060840182613a16565b90506020840151151560408401528091505092915050565b838152606060208201526000613d836060830185613a16565b905060018060a01b0383166040830152949350505050565b6000808335601e19843603018112613db1578283fd5b83018035915067ffffffffffffffff821115613dcb578283fd5b6020019150368190038213156135fb57600080fd5b604051601f8201601f1916810167ffffffffffffffff81118282101715613e0957613e09613f4c565b604052919050565b60008219821115613e2457613e24613f20565b500190565b600082613e3857613e38613f36565b500490565b6000816000190483118215151615613e5757613e57613f20565b500290565b600082821015613e6e57613e6e613f20565b500390565b60005b83811015613e8e578181015183820152602001613e76565b838111156111ed5750506000910152565b600081613eae57613eae613f20565b506000190190565b600181811c90821680613eca57607f821691505b60208210811415613eeb57634e487b7160e01b600052602260045260246000fd5b50919050565b6000600019821415613f0557613f05613f20565b5060010190565b600082613f1b57613f1b613f36565b500690565b634e487b7160e01b600052601160045260246000fd5b634e487b7160e01b600052601260045260246000fd5b634e487b7160e01b600052604160045260246000fd5b6001600160e01b031981168114610f4f57600080fdfe360894a13ba1a3210667c828492db98dca3e2076cc3735a920a3ca505d382bbc65d7a28e3265b37a6474929f336521b332c1681b933f6cb9f3376673440d862a416464726573733a206c6f772d6c6576656c2064656c65676174652063616c6c206661696c6564a264697066735822122088f6eb886da5ad9248a727fb692271e04ed93ce5a73f81902f7d02d405cbb20964736f6c63430008040033",
  "linkReferences": {},
  "deployedLinkReferences": {}
}