{
  "_format": "hh-sol-artifact-1",
  "contractName": "POCP",
  "sourceName": "contracts/POCP.sol",
  "abi": [
    {
      "anonymous": false,
      "inputs": [
        {
          "indexed": false,
          "internalType": "address",
          "name": "previousAdmin",
          "type": "address"
        },
        {
          "indexed": false,
          "internalType": "address",
          "name": "newAdmin",
          "type": "address"
        }
      ],
      "name": "AdminChanged",
      "type": "event"
    },
    {
      "anonymous": false,
      "inputs": [
        {
          "indexed": true,
          "internalType": "address",
          "name": "owner",
          "type": "address"
        },
        {
          "indexed": true,
          "internalType": "address",
          "name": "approved",
          "type": "address"
        },
        {
          "indexed": true,
          "internalType": "uint256",
          "name": "tokenId",
          "type": "uint256"
        }
      ],
      "name": "Approval",
      "type": "event"
    },
    {
      "anonymous": false,
      "inputs": [
        {
          "indexed": true,
          "internalType": "address",
          "name": "owner",
          "type": "address"
        },
        {
          "indexed": true,
          "internalType": "address",
          "name": "operator",
          "type": "address"
        },
        {
          "indexed": false,
          "internalType": "bool",
          "name": "approved",
          "type": "bool"
        }
      ],
      "name": "ApprovalForAll",
      "type": "event"
    },
    {
      "anonymous": false,
      "inputs": [
        {
          "indexed": false,
          "internalType": "uint256",
          "name": "communityId",
          "type": "uint256"
        },
        {
          "indexed": false,
          "internalType": "bytes32",
          "name": "customIdentifier",
          "type": "bytes32"
        },
        {
          "indexed": false,
          "internalType": "uint256",
          "name": "tokenId",
          "type": "uint256"
        }
      ],
      "name": "ApprovedBadge",
      "type": "event"
    },
    {
      "anonymous": false,
      "inputs": [
        {
          "indexed": true,
          "internalType": "uint256",
          "name": "communityId",
          "type": "uint256"
        },
        {
          "indexed": true,
          "internalType": "address",
          "name": "account",
          "type": "address"
        }
      ],
      "name": "ApproverAdded",
      "type": "event"
    },
    {
      "anonymous": false,
      "inputs": [
        {
          "indexed": true,
          "internalType": "uint256",
          "name": "communityId",
          "type": "uint256"
        },
        {
          "indexed": true,
          "internalType": "address",
          "name": "account",
          "type": "address"
        }
      ],
      "name": "ApproverRemoved",
      "type": "event"
    },
    {
      "anonymous": false,
      "inputs": [
        {
          "indexed": true,
          "internalType": "address",
          "name": "beacon",
          "type": "address"
        }
      ],
      "name": "BeaconUpgraded",
      "type": "event"
    },
    {
      "anonymous": false,
      "inputs": [
        {
          "indexed": false,
          "internalType": "uint256",
          "name": "tokenId",
          "type": "uint256"
        },
        {
          "indexed": false,
          "internalType": "uint256",
          "name": "communityId",
          "type": "uint256"
        }
      ],
      "name": "ClaimedBadge",
      "type": "event"
    },
    {
      "anonymous": false,
      "inputs": [
        {
          "indexed": false,
          "internalType": "uint256",
          "name": "communityId",
          "type": "uint256"
        },
        {
          "indexed": false,
          "internalType": "string",
          "name": "communityName",
          "type": "string"
        },
        {
          "indexed": false,
          "internalType": "address[]",
          "name": "approvers",
          "type": "address[]"
        },
        {
          "indexed": false,
          "internalType": "address",
          "name": "txSigner",
          "type": "address"
        }
      ],
      "name": "CommunityRegistered",
      "type": "event"
    },
    {
      "anonymous": false,
      "inputs": [
        {
          "indexed": false,
          "internalType": "address",
          "name": "account",
          "type": "address"
        }
      ],
      "name": "Paused",
      "type": "event"
    },
    {
      "anonymous": false,
      "inputs": [
        {
          "indexed": true,
          "internalType": "bytes32",
          "name": "role",
          "type": "bytes32"
        },
        {
          "indexed": true,
          "internalType": "bytes32",
          "name": "previousAdminRole",
          "type": "bytes32"
        },
        {
          "indexed": true,
          "internalType": "bytes32",
          "name": "newAdminRole",
          "type": "bytes32"
        }
      ],
      "name": "RoleAdminChanged",
      "type": "event"
    },
    {
      "anonymous": false,
      "inputs": [
        {
          "indexed": true,
          "internalType": "bytes32",
          "name": "role",
          "type": "bytes32"
        },
        {
          "indexed": true,
          "internalType": "address",
          "name": "account",
          "type": "address"
        },
        {
          "indexed": true,
          "internalType": "address",
          "name": "sender",
          "type": "address"
        }
      ],
      "name": "RoleGranted",
      "type": "event"
    },
    {
      "anonymous": false,
      "inputs": [
        {
          "indexed": true,
          "internalType": "bytes32",
          "name": "role",
          "type": "bytes32"
        },
        {
          "indexed": true,
          "internalType": "address",
          "name": "account",
          "type": "address"
        },
        {
          "indexed": true,
          "internalType": "address",
          "name": "sender",
          "type": "address"
        }
      ],
      "name": "RoleRevoked",
      "type": "event"
    },
    {
      "anonymous": false,
      "inputs": [
        {
          "indexed": true,
          "internalType": "address",
          "name": "from",
          "type": "address"
        },
        {
          "indexed": true,
          "internalType": "address",
          "name": "to",
          "type": "address"
        },
        {
          "indexed": true,
          "internalType": "uint256",
          "name": "tokenId",
          "type": "uint256"
        }
      ],
      "name": "Transfer",
      "type": "event"
    },
    {
      "anonymous": false,
      "inputs": [
        {
          "indexed": false,
          "internalType": "address",
          "name": "account",
          "type": "address"
        }
      ],
      "name": "Unpaused",
      "type": "event"
    },
    {
      "anonymous": false,
      "inputs": [
        {
          "indexed": true,
          "internalType": "address",
          "name": "implementation",
          "type": "address"
        }
      ],
      "name": "Upgraded",
      "type": "event"
    },
    {
      "anonymous": false,
      "inputs": [
        {
          "indexed": false,
          "internalType": "uint256",
          "name": "approvedFor",
          "type": "uint256"
        }
      ],
      "name": "Voucher",
      "type": "event"
    },
    {
      "inputs": [],
      "name": "DEFAULT_ADMIN_ROLE",
      "outputs": [
        {
          "internalType": "bytes32",
          "name": "",
          "type": "bytes32"
        }
      ],
      "stateMutability": "view",
      "type": "function"
    },
    {
      "inputs": [],
      "name": "PAUSER_ROLE",
      "outputs": [
        {
          "internalType": "bytes32",
          "name": "",
          "type": "bytes32"
        }
      ],
      "stateMutability": "view",
      "type": "function"
    },
    {
      "inputs": [],
      "name": "UPGRADER_ROLE",
      "outputs": [
        {
          "internalType": "bytes32",
          "name": "",
          "type": "bytes32"
        }
      ],
      "stateMutability": "view",
      "type": "function"
    },
    {
      "inputs": [
        {
          "internalType": "uint256",
          "name": "communityId",
          "type": "uint256"
        },
        {
          "internalType": "address",
          "name": "account",
          "type": "address"
        },
        {
          "internalType": "bool",
          "name": "emitEvent",
          "type": "bool"
        }
      ],
      "name": "addApprover",
      "outputs": [],
      "stateMutability": "nonpayable",
      "type": "function"
    },
    {
      "inputs": [
        {
          "internalType": "address",
          "name": "to",
          "type": "address"
        },
        {
          "internalType": "uint256",
          "name": "tokenId",
          "type": "uint256"
        }
      ],
      "name": "approve",
      "outputs": [],
      "stateMutability": "nonpayable",
      "type": "function"
    },
    {
      "inputs": [
        {
          "internalType": "uint256",
          "name": "communityId",
          "type": "uint256"
        },
        {
          "internalType": "address[]",
          "name": "approvedFor",
          "type": "address[]"
        },
        {
          "internalType": "string[]",
          "name": "uri",
          "type": "string[]"
        },
        {
          "internalType": "uint256[]",
          "name": "customIdentifier",
          "type": "uint256[]"
        }
      ],
      "name": "approveBadge",
      "outputs": [],
      "stateMutability": "nonpayable",
      "type": "function"
    },
    {
      "inputs": [
        {
          "internalType": "address",
          "name": "owner",
          "type": "address"
        }
      ],
      "name": "balanceOf",
      "outputs": [
        {
          "internalType": "uint256",
          "name": "",
          "type": "uint256"
        }
      ],
      "stateMutability": "view",
      "type": "function"
    },
    {
      "inputs": [
        {
          "internalType": "uint256[]",
          "name": "tokenIds",
          "type": "uint256[]"
        }
      ],
      "name": "claim",
      "outputs": [],
      "stateMutability": "nonpayable",
      "type": "function"
    },
    {
      "inputs": [
        {
          "internalType": "uint256",
          "name": "community_id",
          "type": "uint256"
        }
      ],
      "name": "community",
      "outputs": [
        {
          "components": [
            {
              "internalType": "string",
              "name": "name",
              "type": "string"
            },
            {
              "internalType": "string",
              "name": "uri",
              "type": "string"
            },
            {
              "internalType": "bool",
              "name": "initiated",
              "type": "bool"
            }
          ],
          "internalType": "struct POCP.Community",
          "name": "",
          "type": "tuple"
        }
      ],
      "stateMutability": "view",
      "type": "function"
    },
    {
      "inputs": [
        {
          "internalType": "uint256",
          "name": "communityId",
          "type": "uint256"
        }
      ],
      "name": "communityTokens",
      "outputs": [
        {
          "internalType": "uint256[]",
          "name": "",
          "type": "uint256[]"
        }
      ],
      "stateMutability": "view",
      "type": "function"
    },
    {
      "inputs": [
        {
          "internalType": "bytes32",
          "name": "",
          "type": "bytes32"
        }
      ],
      "name": "daos",
      "outputs": [
        {
          "internalType": "bytes32",
          "name": "",
          "type": "bytes32"
        }
      ],
      "stateMutability": "view",
      "type": "function"
    },
    {
      "inputs": [
        {
          "internalType": "uint256",
          "name": "tokenId",
          "type": "uint256"
        }
      ],
      "name": "getApproved",
      "outputs": [
        {
          "internalType": "address",
          "name": "",
          "type": "address"
        }
      ],
      "stateMutability": "view",
      "type": "function"
    },
    {
      "inputs": [
        {
          "internalType": "bytes32",
          "name": "role",
          "type": "bytes32"
        }
      ],
      "name": "getRoleAdmin",
      "outputs": [
        {
          "internalType": "bytes32",
          "name": "",
          "type": "bytes32"
        }
      ],
      "stateMutability": "view",
      "type": "function"
    },
    {
      "inputs": [],
      "name": "getTrustedForwarder",
      "outputs": [
        {
          "internalType": "address",
          "name": "",
          "type": "address"
        }
      ],
      "stateMutability": "view",
      "type": "function"
    },
    {
      "inputs": [
        {
          "internalType": "bytes32",
          "name": "role",
          "type": "bytes32"
        },
        {
          "internalType": "address",
          "name": "account",
          "type": "address"
        }
      ],
      "name": "grantRole",
      "outputs": [],
      "stateMutability": "nonpayable",
      "type": "function"
    },
    {
      "inputs": [
        {
          "internalType": "bytes32",
          "name": "role",
          "type": "bytes32"
        },
        {
          "internalType": "address",
          "name": "account",
          "type": "address"
        }
      ],
      "name": "hasRole",
      "outputs": [
        {
          "internalType": "bool",
          "name": "",
          "type": "bool"
        }
      ],
      "stateMutability": "view",
      "type": "function"
    },
    {
      "inputs": [
        {
          "internalType": "address",
          "name": "trustedForwarder",
          "type": "address"
        }
      ],
      "name": "initialize",
      "outputs": [],
      "stateMutability": "nonpayable",
      "type": "function"
    },
    {
      "inputs": [
        {
          "internalType": "address",
          "name": "owner",
          "type": "address"
        },
        {
          "internalType": "address",
          "name": "operator",
          "type": "address"
        }
      ],
      "name": "isApprovedForAll",
      "outputs": [
        {
          "internalType": "bool",
          "name": "",
          "type": "bool"
        }
      ],
      "stateMutability": "view",
      "type": "function"
    },
    {
      "inputs": [
        {
          "internalType": "uint256",
          "name": "communityId",
          "type": "uint256"
        },
        {
          "internalType": "address",
          "name": "account",
          "type": "address"
        }
      ],
      "name": "isApprover",
      "outputs": [
        {
          "internalType": "bool",
          "name": "",
          "type": "bool"
        }
      ],
      "stateMutability": "view",
      "type": "function"
    },
    {
      "inputs": [
        {
          "internalType": "address",
          "name": "forwarder",
          "type": "address"
        }
      ],
      "name": "isTrustedForwarder",
      "outputs": [
        {
          "internalType": "bool",
          "name": "",
          "type": "bool"
        }
      ],
      "stateMutability": "view",
      "type": "function"
    },
    {
      "inputs": [],
      "name": "lastId",
      "outputs": [
        {
          "internalType": "uint256",
          "name": "",
          "type": "uint256"
        }
      ],
      "stateMutability": "view",
      "type": "function"
    },
    {
      "inputs": [],
      "name": "name",
      "outputs": [
        {
          "internalType": "string",
          "name": "",
          "type": "string"
        }
      ],
      "stateMutability": "view",
      "type": "function"
    },
    {
      "inputs": [
        {
          "internalType": "uint256",
          "name": "tokenId",
          "type": "uint256"
        }
      ],
      "name": "ownerOf",
      "outputs": [
        {
          "internalType": "address",
          "name": "",
          "type": "address"
        }
      ],
      "stateMutability": "view",
      "type": "function"
    },
    {
      "inputs": [],
      "name": "pause",
      "outputs": [],
      "stateMutability": "nonpayable",
      "type": "function"
    },
    {
      "inputs": [],
      "name": "paused",
      "outputs": [
        {
          "internalType": "bool",
          "name": "",
          "type": "bool"
        }
      ],
      "stateMutability": "view",
      "type": "function"
    },
    {
      "inputs": [],
      "name": "proxiableUUID",
      "outputs": [
        {
          "internalType": "bytes32",
          "name": "",
          "type": "bytes32"
        }
      ],
      "stateMutability": "view",
      "type": "function"
    },
    {
      "inputs": [
        {
          "internalType": "string",
          "name": "communityName",
          "type": "string"
        },
        {
          "internalType": "string",
          "name": "communityUri",
          "type": "string"
        },
        {
          "internalType": "address[]",
          "name": "approvers",
          "type": "address[]"
        }
      ],
      "name": "register",
      "outputs": [],
      "stateMutability": "nonpayable",
      "type": "function"
    },
    {
      "inputs": [
        {
          "internalType": "uint256",
          "name": "communityId",
          "type": "uint256"
        },
        {
          "internalType": "address",
          "name": "account",
          "type": "address"
        }
      ],
      "name": "removeApprover",
      "outputs": [],
      "stateMutability": "nonpayable",
      "type": "function"
    },
    {
      "inputs": [
        {
          "internalType": "bytes32",
          "name": "role",
          "type": "bytes32"
        },
        {
          "internalType": "address",
          "name": "account",
          "type": "address"
        }
      ],
      "name": "renounceRole",
      "outputs": [],
      "stateMutability": "nonpayable",
      "type": "function"
    },
    {
      "inputs": [
        {
          "internalType": "bytes32",
          "name": "role",
          "type": "bytes32"
        },
        {
          "internalType": "address",
          "name": "account",
          "type": "address"
        }
      ],
      "name": "revokeRole",
      "outputs": [],
      "stateMutability": "nonpayable",
      "type": "function"
    },
    {
      "inputs": [
        {
          "internalType": "address",
          "name": "to",
          "type": "address"
        },
        {
          "internalType": "uint256",
          "name": "tokenId",
          "type": "uint256"
        }
      ],
      "name": "safeMint",
      "outputs": [],
      "stateMutability": "nonpayable",
      "type": "function"
    },
    {
      "inputs": [
        {
          "internalType": "address",
          "name": "from",
          "type": "address"
        },
        {
          "internalType": "address",
          "name": "to",
          "type": "address"
        },
        {
          "internalType": "uint256",
          "name": "tokenId",
          "type": "uint256"
        }
      ],
      "name": "safeTransferFrom",
      "outputs": [],
      "stateMutability": "nonpayable",
      "type": "function"
    },
    {
      "inputs": [
        {
          "internalType": "address",
          "name": "from",
          "type": "address"
        },
        {
          "internalType": "address",
          "name": "to",
          "type": "address"
        },
        {
          "internalType": "uint256",
          "name": "tokenId",
          "type": "uint256"
        },
        {
          "internalType": "bytes",
          "name": "_data",
          "type": "bytes"
        }
      ],
      "name": "safeTransferFrom",
      "outputs": [],
      "stateMutability": "nonpayable",
      "type": "function"
    },
    {
      "inputs": [
        {
          "internalType": "address",
          "name": "operator",
          "type": "address"
        },
        {
          "internalType": "bool",
          "name": "approved",
          "type": "bool"
        }
      ],
      "name": "setApprovalForAll",
      "outputs": [],
      "stateMutability": "nonpayable",
      "type": "function"
    },
    {
      "inputs": [
        {
          "internalType": "bytes4",
          "name": "interfaceId",
          "type": "bytes4"
        }
      ],
      "name": "supportsInterface",
      "outputs": [
        {
          "internalType": "bool",
          "name": "",
          "type": "bool"
        }
      ],
      "stateMutability": "view",
      "type": "function"
    },
    {
      "inputs": [],
      "name": "symbol",
      "outputs": [
        {
          "internalType": "string",
          "name": "",
          "type": "string"
        }
      ],
      "stateMutability": "view",
      "type": "function"
    },
    {
      "inputs": [
        {
          "internalType": "uint256",
          "name": "index",
          "type": "uint256"
        }
      ],
      "name": "tokenByIndex",
      "outputs": [
        {
          "internalType": "uint256",
          "name": "",
          "type": "uint256"
        }
      ],
      "stateMutability": "view",
      "type": "function"
    },
    {
      "inputs": [
        {
          "internalType": "address",
          "name": "owner",
          "type": "address"
        },
        {
          "internalType": "uint256",
          "name": "index",
          "type": "uint256"
        }
      ],
      "name": "tokenOfOwnerByIndex",
      "outputs": [
        {
          "internalType": "uint256",
          "name": "",
          "type": "uint256"
        }
      ],
      "stateMutability": "view",
      "type": "function"
    },
    {
      "inputs": [
        {
          "internalType": "uint256",
          "name": "tokenId",
          "type": "uint256"
        }
      ],
      "name": "tokenURI",
      "outputs": [
        {
          "internalType": "string",
          "name": "",
          "type": "string"
        }
      ],
      "stateMutability": "view",
      "type": "function"
    },
    {
      "inputs": [],
      "name": "totalCommunities",
      "outputs": [
        {
          "internalType": "uint256",
          "name": "",
          "type": "uint256"
        }
      ],
      "stateMutability": "view",
      "type": "function"
    },
    {
      "inputs": [],
      "name": "totalSupply",
      "outputs": [
        {
          "internalType": "uint256",
          "name": "",
          "type": "uint256"
        }
      ],
      "stateMutability": "view",
      "type": "function"
    },
    {
      "inputs": [
        {
          "internalType": "address",
          "name": "from",
          "type": "address"
        },
        {
          "internalType": "address",
          "name": "to",
          "type": "address"
        },
        {
          "internalType": "uint256",
          "name": "tokenId",
          "type": "uint256"
        }
      ],
      "name": "transferFrom",
      "outputs": [],
      "stateMutability": "nonpayable",
      "type": "function"
    },
    {
      "inputs": [],
      "name": "unpause",
      "outputs": [],
      "stateMutability": "nonpayable",
      "type": "function"
    },
    {
      "inputs": [
        {
          "internalType": "address",
          "name": "newImplementation",
          "type": "address"
        }
      ],
      "name": "upgradeTo",
      "outputs": [],
      "stateMutability": "nonpayable",
      "type": "function"
    },
    {
      "inputs": [
        {
          "internalType": "address",
          "name": "newImplementation",
          "type": "address"
        },
        {
          "internalType": "bytes",
          "name": "data",
          "type": "bytes"
        }
      ],
      "name": "upgradeToAndCall",
      "outputs": [],
      "stateMutability": "payable",
      "type": "function"
    },
    {
      "inputs": [
        {
          "internalType": "uint8",
          "name": "tokenId",
          "type": "uint8"
        }
      ],
      "name": "userBadge",
      "outputs": [
        {
          "components": [
            {
              "internalType": "string",
              "name": "uri",
              "type": "string"
            },
            {
              "internalType": "address",
              "name": "approvedBy",
              "type": "address"
            },
            {
              "internalType": "bool",
              "name": "claimed",
              "type": "bool"
            },
            {
              "internalType": "bool",
              "name": "initiated",
              "type": "bool"
            },
            {
              "internalType": "uint256",
              "name": "communityId",
              "type": "uint256"
            }
          ],
          "internalType": "struct POCP.Badge",
          "name": "badge",
          "type": "tuple"
        }
      ],
      "stateMutability": "view",
      "type": "function"
    },
    {
      "inputs": [],
      "name": "userBadgeIds",
      "outputs": [
        {
          "internalType": "uint256[]",
          "name": "badgeIds",
          "type": "uint256[]"
        }
      ],
      "stateMutability": "view",
      "type": "function"
    }
  ],
  "bytecode": "0x60a06040523060601b60805234801561001757600080fd5b5060805160601c61418861005260003960008181610f3c01528181610f7c0152818161103f0152818161107f01526111af01526141886000f3fe6080604052600436106102885760003560e01c806370a082311161015a578063c87b56dd116100c1578063e63ab1e91161007a578063e63ab1e9146107ad578063e985e9c5146107cf578063f080df6814610818578063f72c0d8b14610838578063fcb4d2061461086c578063fe9c1c131461088357600080fd5b8063c87b56dd146106df578063c9ab9cf6146106ff578063ce1b815f14610721578063d3e4047a14610740578063d547741f14610760578063dc349a3b1461078057600080fd5b8063a22cb46511610113578063a22cb4651461062d578063b88d4fde1461064d578063bb6c352c14610668578063c1292cc314610688578063c3759eb81461069f578063c4d66de8146106bf57600080fd5b806370a082311461058e5780638456cb59146105ae57806391d14854146105c357806395d89b41146105e3578063a1448194146105f8578063a217fddf1461061857600080fd5b80632fa2cc4e116101fe5780634f6ccce7116101b75780634f6ccce7146104d157806352d1902d146104f1578063572b6c05146105065780635c975abb146105365780636352211e1461054e5780636ba4c1381461056e57600080fd5b80632fa2cc4e1461043b57806336568abe146104695780633659cfe6146104895780633f4ba83a146104a957806342842e0e1461038a5780634f1ef286146104be57600080fd5b806318160ddd1161025057806318160ddd1461036b57806323b872dd1461038a578063248a9ca3146103aa5780632b033699146103db5780632f2ff15d146103fb5780632f745c591461041b57600080fd5b806301ffc9a71461028d57806306fdde03146102c2578063081812fc146102e4578063095ea7b31461031c57806314de72d41461033e575b600080fd5b34801561029957600080fd5b506102ad6102a8366004613918565b6108a3565b60405190151581526020015b60405180910390f35b3480156102ce57600080fd5b506102d76108b4565b6040516102b99190613c54565b3480156102f057600080fd5b506103046102ff3660046138c6565b610946565b6040516001600160a01b0390911681526020016102b9565b34801561032857600080fd5b5061033c61033736600461385d565b6109e0565b005b34801561034a57600080fd5b5061035e6103593660046138c6565b610b08565b6040516102b99190613e44565b34801561037757600080fd5b506099545b6040519081526020016102b9565b34801561039657600080fd5b5061033c6103a5366004613747565b610c78565b3480156103b657600080fd5b5061037c6103c53660046138c6565b60009081526101c6602052604090206001015490565b3480156103e757600080fd5b5061033c6103f6366004613934565b610cb7565b34801561040757600080fd5b5061033c6104163660046138f6565b610ddf565b34801561042757600080fd5b5061037c61043636600461385d565b610e0d565b34801561044757600080fd5b5061037c6104563660046138c6565b61012d6020526000908152604090205481565b34801561047557600080fd5b5061033c6104843660046138f6565b610ea3565b34801561049557600080fd5b5061033c6104a43660046136fb565b610f31565b3480156104b557600080fd5b5061033c611011565b61033c6104cc366004613811565b611034565b3480156104dd57600080fd5b5061037c6104ec3660046138c6565b611101565b3480156104fd57600080fd5b5061037c6111a2565b34801561051257600080fd5b506102ad6105213660046136fb565b61022b546001600160a01b0391821691161490565b34801561054257600080fd5b5060fb5460ff166102ad565b34801561055a57600080fd5b506103046105693660046138c6565b611255565b34801561057a57600080fd5b5061033c610589366004613886565b6112cc565b34801561059a57600080fd5b5061037c6105a93660046136fb565b611531565b3480156105ba57600080fd5b5061033c6115b8565b3480156105cf57600080fd5b506102ad6105de3660046138f6565b6115db565b3480156105ef57600080fd5b506102d7611607565b34801561060457600080fd5b5061033c61061336600461385d565b611616565b34801561062457600080fd5b5061037c600081565b34801561063957600080fd5b5061033c6106483660046137e8565b611651565b34801561065957600080fd5b5061033c6103a5366004613782565b34801561067457600080fd5b5061033c6106833660046138f6565b611669565b34801561069457600080fd5b5061037c6102315481565b3480156106ab57600080fd5b506102ad6106ba3660046138f6565b6116c0565b3480156106cb57600080fd5b5061033c6106da3660046136fb565b6116ec565b3480156106eb57600080fd5b506102d76106fa3660046138c6565b61183f565b34801561070b57600080fd5b5061071461184a565b6040516102b99190613c10565b34801561072d57600080fd5b5061022b546001600160a01b0316610304565b34801561074c57600080fd5b5061071461075b3660046138c6565b6118cc565b34801561076c57600080fd5b5061033c61077b3660046138f6565b61192f565b34801561078c57600080fd5b506107a061079b366004613b03565b611958565b6040516102b99190613de8565b3480156107b957600080fd5b5061037c60008051602061410c83398151915281565b3480156107db57600080fd5b506102ad6107ea366004613715565b6001600160a01b039182166000908152606a6020908152604080832093909416825291909152205460ff1690565b34801561082457600080fd5b5061033c610833366004613a63565b611aa8565b34801561084457600080fd5b5061037c7f189ab7a9244df0848122154315af71fe140f3db0fe014031783b0946b8c9d2e381565b34801561087857600080fd5b5061037c61022d5481565b34801561088f57600080fd5b5061033c61089e366004613a28565b611dfe565b60006108ae82611e5d565b92915050565b6060606580546108c390614029565b80601f01602080910402602001604051908101604052809291908181526020018280546108ef90614029565b801561093c5780601f106109115761010080835404028352916020019161093c565b820191906000526020600020905b81548152906001019060200180831161091f57829003601f168201915b5050505050905090565b6000818152606760205260408120546001600160a01b03166109c45760405162461bcd60e51b815260206004820152602c60248201527f4552433732313a20617070726f76656420717565727920666f72206e6f6e657860448201526b34b9ba32b73a103a37b5b2b760a11b60648201526084015b60405180910390fd5b506000908152606960205260409020546001600160a01b031690565b60006109eb82611255565b9050806001600160a01b0316836001600160a01b03161415610a595760405162461bcd60e51b815260206004820152602160248201527f4552433732313a20617070726f76616c20746f2063757272656e74206f776e656044820152603960f91b60648201526084016109bb565b806001600160a01b0316610a6b611e82565b6001600160a01b03161480610a875750610a87816107ea611e82565b610af95760405162461bcd60e51b815260206004820152603860248201527f4552433732313a20617070726f76652063616c6c6572206973206e6f74206f7760448201527f6e6572206e6f7220617070726f76656420666f7220616c6c000000000000000060648201526084016109bb565b610b038383611eab565b505050565b60408051606080820183528082526020820152600091810191909152600082815261022c602052604090819020815160608101909252805482908290610b4d90614029565b80601f0160208091040260200160405190810160405280929190818152602001828054610b7990614029565b8015610bc65780601f10610b9b57610100808354040283529160200191610bc6565b820191906000526020600020905b815481529060010190602001808311610ba957829003601f168201915b50505050508152602001600182018054610bdf90614029565b80601f0160208091040260200160405190810160405280929190818152602001828054610c0b90614029565b8015610c585780601f10610c2d57610100808354040283529160200191610c58565b820191906000526020600020905b815481529060010190602001808311610c3b57829003601f168201915b50505091835250506002919091015460ff16151560209091015292915050565b60405162461bcd60e51b8152602060048201526014602482015273151c985b9cd9995c881b9bdd08105b1b1bddd95960621b60448201526064016109bb565b61022d54604080516060810182528581526020808201869052600182840152600084815261022c8252929092208151805192938493610cf99284920190613581565b506020828101518051610d129260018501920190613581565b50604091909101516002909101805460ff191691151591909117905561022d54610d3d906001613f84565b61022d556000805b8451811015610d9257610d8084868381518110610d7257634e487b7160e01b600052603260045260246000fd5b602002602001015184611dfe565b80610d8a81614064565b915050610d45565b507f1729c21dc0b284c20ae5c50ccd77ffc750581585ca7fa5f75d4d299042150054838786610dbf611e82565b604051610dcf9493929190613e96565b60405180910390a1505050505050565b60008281526101c66020526040902060010154610e0381610dfe611e82565b611f19565b610b038383611f7d565b6000610e1883611531565b8210610e7a5760405162461bcd60e51b815260206004820152602b60248201527f455243373231456e756d657261626c653a206f776e657220696e646578206f7560448201526a74206f6620626f756e647360a81b60648201526084016109bb565b506001600160a01b03919091166000908152609760209081526040808320938352929052205490565b610eab611e82565b6001600160a01b0316816001600160a01b031614610f235760405162461bcd60e51b815260206004820152602f60248201527f416363657373436f6e74726f6c3a2063616e206f6e6c792072656e6f756e636560448201526e103937b632b9903337b91039b2b63360891b60648201526084016109bb565b610f2d8282612005565b5050565b306001600160a01b037f0000000000000000000000000000000000000000000000000000000000000000161415610f7a5760405162461bcd60e51b81526004016109bb90613c67565b7f00000000000000000000000000000000000000000000000000000000000000006001600160a01b0316610fc36000805160206140ec833981519152546001600160a01b031690565b6001600160a01b031614610fe95760405162461bcd60e51b81526004016109bb90613cb3565b610ff28161208b565b6040805160008082526020820190925261100e918391906120b8565b50565b60008051602061410c83398151915261102c81610dfe611e82565b61100e612232565b306001600160a01b037f000000000000000000000000000000000000000000000000000000000000000016141561107d5760405162461bcd60e51b81526004016109bb90613c67565b7f00000000000000000000000000000000000000000000000000000000000000006001600160a01b03166110c66000805160206140ec833981519152546001600160a01b031690565b6001600160a01b0316146110ec5760405162461bcd60e51b81526004016109bb90613cb3565b6110f58261208b565b610f2d828260016120b8565b600061110c60995490565b821061116f5760405162461bcd60e51b815260206004820152602c60248201527f455243373231456e756d657261626c653a20676c6f62616c20696e646578206f60448201526b7574206f6620626f756e647360a01b60648201526084016109bb565b6099828154811061119057634e487b7160e01b600052603260045260246000fd5b90600052602060002001549050919050565b6000306001600160a01b037f000000000000000000000000000000000000000000000000000000000000000016146112425760405162461bcd60e51b815260206004820152603860248201527f555550535570677261646561626c653a206d757374206e6f742062652063616c60448201527f6c6564207468726f7567682064656c656761746563616c6c000000000000000060648201526084016109bb565b506000805160206140ec83398151915290565b6000818152606760205260408120546001600160a01b0316806108ae5760405162461bcd60e51b815260206004820152602960248201527f4552433732313a206f776e657220717565727920666f72206e6f6e657869737460448201526832b73a103a37b5b2b760b91b60648201526084016109bb565b60fb5460ff16156112ef5760405162461bcd60e51b81526004016109bb90613cff565b806113355760405162461bcd60e51b8152602060048201526016602482015275746f6b656e496473206c69737420697320656d70747960501b60448201526064016109bb565b60005b81811015610b0357600083838381811061136257634e487b7160e01b600052603260045260246000fd5b905060200201359050600061022f600061137a611e82565b6001600160a01b031681526020808201929092526040908101600090812085825290925290206001810154909150600160a01b900460ff161580156113ce5750600181810154600160a81b900460ff161515145b1561151c5760018101546113eb906001600160a01b0316836122cb565b611481828260000180546113fe90614029565b80601f016020809104026020016040519081016040528092919081815260200182805461142a90614029565b80156114775780601f1061144c57610100808354040283529160200191611477565b820191906000526020600020905b81548152906001019060200180831161145a57829003601f168201915b5050505050612419565b60028101546040805184815260208101929092527f0c86f3fbd292584ffcc982f3252f26626221d8953c2d1a00ce6ef24a906cb720910160405180910390a160018101546114e0906001600160a01b03166114da611e82565b846124b3565b6001818101805460ff60a01b1916600160a01b1790556002820154600090815261022e6020908152604082208054938401815582529020018290555b5050808061152990614064565b915050611338565b60006001600160a01b03821661159c5760405162461bcd60e51b815260206004820152602a60248201527f4552433732313a2062616c616e636520717565727920666f7220746865207a65604482015269726f206164647265737360b01b60648201526084016109bb565b506001600160a01b031660009081526068602052604090205490565b60008051602061410c8339815191526115d381610dfe611e82565b61100e61265a565b60009182526101c6602090815260408084206001600160a01b0393909316845291905290205460ff1690565b6060606680546108c390614029565b60405162461bcd60e51b815260206004820152601060248201526f135a5b9d081b9bdd08105b1b1bddd95960821b60448201526064016109bb565b610f2d61165c611e82565b83836126b3565b50505050565b81611672611e82565b61167c82826116c0565b8061169a575060008281526101f8602052604090206001015460ff16155b6116b65760405162461bcd60e51b81526004016109bb90613d77565b6116638484612782565b60009182526101f8602090815260408084206001600160a01b0393909316845291905290205460ff1690565b600054610100900460ff166117075760005460ff161561170b565b303b155b6117275760405162461bcd60e51b81526004016109bb90613d29565b600054610100900460ff16158015611749576000805461ffff19166101011790555b61178b604051806040016040528060048152602001630504f43560e41b815250604051806040016040528060048152602001630504f43560e41b8152506127ea565b61179361281b565b61179b61281b565b6117a3612844565b6117ab61281b565b6117fa6040518060400160405280601081526020016f26b4b734b6b0b62337b93bb0b93232b960811b81525060405180604001604052806005815260200164302e302e3160d81b815250612873565b6118026128a4565b61022b80546001600160a01b0319166001600160a01b038416179055600061022d556001610231558015610f2d576000805461ff00191690555050565b60606108ae82612975565b60606102306000611859611e82565b6001600160a01b03166001600160a01b0316815260200190815260200160002080548060200260200160405190810160405280929190818152602001828054801561093c57602002820191906000526020600020905b8154815260200190600101908083116118af575050505050905090565b600081815261022e602090815260409182902080548351818402810184019094528084526060939283018282801561192357602002820191906000526020600020905b81548152602001906001019080831161190f575b50505050509050919050565b60008281526101c6602052604090206001015461194e81610dfe611e82565b610b038383612005565b6040805160a08101825260608082526000602083018190529282018390528101829052608081019190915261022f6000611990611e82565b6001600160a01b03166001600160a01b0316815260200190815260200160002060008360ff1681526020019081526020016000206040518060a00160405290816000820180546119df90614029565b80601f0160208091040260200160405190810160405280929190818152602001828054611a0b90614029565b8015611a585780601f10611a2d57610100808354040283529160200191611a58565b820191906000526020600020905b815481529060010190602001808311611a3b57829003601f168201915b505050918352505060018201546001600160a01b038116602083015260ff600160a01b8204811615156040840152600160a81b909104161515606082015260029091015460809091015292915050565b60fb5460ff1615611acb5760405162461bcd60e51b81526004016109bb90613cff565b86611ad4611e82565b611ade82826116c0565b80611afc575060008281526101f8602052604090206001015460ff16155b611b185760405162461bcd60e51b81526004016109bb90613d77565b8685148015611b2657508483145b611b695760405162461bcd60e51b815260206004820152601460248201527320b933bab6b2b73a1034b7383aba1032b93937b960611b60448201526064016109bb565b60005b87811015611df2576040518060a00160405280888884818110611b9f57634e487b7160e01b600052603260045260246000fd5b9050602002810190611bb19190613f0e565b8080601f016020809104026020016040519081016040528093929190818152602001838380828437600092019190915250505090825250602001611bf3611e82565b6001600160a01b031681526000602082018190526001604083015260609091018c905261022f908b8b85818110611c3a57634e487b7160e01b600052603260045260246000fd5b9050602002016020810190611c4f91906136fb565b6001600160a01b0316815260208082019290925260409081016000908120610231548252835220825180519192611c8b92849290910190613581565b506020820151600182018054604085015160608601511515600160a81b0260ff60a81b19911515600160a01b026001600160a81b03199093166001600160a01b0390951694909417919091171691909117905560809091015160029091015561023060008a8a84818110611d0f57634e487b7160e01b600052603260045260246000fd5b9050602002016020810190611d2491906136fb565b6001600160a01b0316815260208082019290925260400160009081206102315481546001810183559183529290912001557fd8c8c423e1a1436285bce436a6fd847238b0e3ade5533e91715ce6052e6501b68a868684818110611d9757634e487b7160e01b600052603260045260246000fd5b9050602002013560001b61023154604051611dc5939291909283526020830191909152604082015260600190565b60405180910390a161023154611ddc906001613f84565b6102315580611dea81614064565b915050611b6c565b50505050505050505050565b82611e07611e82565b611e1182826116c0565b80611e2f575060008281526101f8602052604090206001015460ff16155b611e4b5760405162461bcd60e51b81526004016109bb90613d77565b611e56858585612afc565b5050505050565b60006001600160e01b03198216637965db0b60e01b14806108ae57506108ae82612b90565b61022b546000906001600160a01b0316331415611ea6575060131936013560601c90565b503390565b600081815260696020526040902080546001600160a01b0319166001600160a01b0384169081179091558190611ee082611255565b6001600160a01b03167f8c5be1e5ebec7d5bd14f71427d1e84f3dd0314c0f7b2291e5b200ac8c7c3b92560405160405180910390a45050565b611f2382826115db565b610f2d57611f3b816001600160a01b03166014612bb5565b611f46836020612bb5565b604051602001611f57929190613b9b565b60408051601f198184030181529082905262461bcd60e51b82526109bb91600401613c54565b611f8782826115db565b610f2d5760008281526101c6602090815260408083206001600160a01b03851684529091529020805460ff19166001179055611fc1611e82565b6001600160a01b0316816001600160a01b0316837f2f8788117e7eff1d82e926ec794901d17c78024a50270940304540a733656f0d60405160405180910390a45050565b61200f82826115db565b15610f2d5760008281526101c6602090815260408083206001600160a01b03851684529091529020805460ff19169055612047611e82565b6001600160a01b0316816001600160a01b0316837ff6391f5c32d9c69d2a47ea670b442974b53935d1edc7fd64eb21e047a839171b60405160405180910390a45050565b7f189ab7a9244df0848122154315af71fe140f3db0fe014031783b0946b8c9d2e3610f2d81610dfe611e82565b7f4910fdfa16fed3260ed0e7147f7cc6da11a60208b5b9406d12a635614ffd91435460ff16156120eb57610b0383612d9e565b826001600160a01b03166352d1902d6040518163ffffffff1660e01b815260040160206040518083038186803b15801561212457600080fd5b505afa925050508015612154575060408051601f3d908101601f19168201909252612151918101906138de565b60015b6121b75760405162461bcd60e51b815260206004820152602e60248201527f45524331393637557067726164653a206e657720696d706c656d656e7461746960448201526d6f6e206973206e6f74205555505360901b60648201526084016109bb565b6000805160206140ec83398151915281146122265760405162461bcd60e51b815260206004820152602960248201527f45524331393637557067726164653a20756e737570706f727465642070726f786044820152681a58589b195555525160ba1b60648201526084016109bb565b50610b03838383612e3a565b60fb5460ff1661227b5760405162461bcd60e51b815260206004820152601460248201527314185d5cd8589b194e881b9bdd081c185d5cd95960621b60448201526064016109bb565b60fb805460ff191690557f5db9ee0a495bf2e6ff9c91a7834c1ba4fdd244a5e8aa4e537bd38aeae4b073aa6122ae611e82565b6040516001600160a01b03909116815260200160405180910390a1565b6001600160a01b0382166123215760405162461bcd60e51b815260206004820181905260248201527f4552433732313a206d696e7420746f20746865207a65726f206164647265737360448201526064016109bb565b6000818152606760205260409020546001600160a01b0316156123865760405162461bcd60e51b815260206004820152601c60248201527f4552433732313a20746f6b656e20616c7265616479206d696e7465640000000060448201526064016109bb565b61239260008383612e5f565b6001600160a01b03821660009081526068602052604081208054600192906123bb908490613f84565b909155505060008181526067602052604080822080546001600160a01b0319166001600160a01b03861690811790915590518392907fddf252ad1be2c89b69c2b068fc378daa952ba7f163c4a11628f55a4df523b3ef908290a45050565b6000828152606760205260409020546001600160a01b03166124945760405162461bcd60e51b815260206004820152602e60248201527f45524337323155524953746f726167653a2055524920736574206f66206e6f6e60448201526d32bc34b9ba32b73a103a37b5b2b760911b60648201526084016109bb565b600082815260c9602090815260409091208251610b0392840190613581565b826001600160a01b03166124c682611255565b6001600160a01b03161461252a5760405162461bcd60e51b815260206004820152602560248201527f4552433732313a207472616e736665722066726f6d20696e636f72726563742060448201526437bbb732b960d91b60648201526084016109bb565b6001600160a01b03821661258c5760405162461bcd60e51b8152602060048201526024808201527f4552433732313a207472616e7366657220746f20746865207a65726f206164646044820152637265737360e01b60648201526084016109bb565b612597838383612e5f565b6125a2600082611eab565b6001600160a01b03831660009081526068602052604081208054600192906125cb908490613fcf565b90915550506001600160a01b03821660009081526068602052604081208054600192906125f9908490613f84565b909155505060008181526067602052604080822080546001600160a01b0319166001600160a01b0386811691821790925591518493918716917fddf252ad1be2c89b69c2b068fc378daa952ba7f163c4a11628f55a4df523b3ef91a4505050565b60fb5460ff161561267d5760405162461bcd60e51b81526004016109bb90613cff565b60fb805460ff191660011790557f62e78cea01bee320cd4e420270b5ea74000d11b0c9f74754ebdbfc544b05a2586122ae611e82565b816001600160a01b0316836001600160a01b031614156127155760405162461bcd60e51b815260206004820152601960248201527f4552433732313a20617070726f766520746f2063616c6c65720000000000000060448201526064016109bb565b6001600160a01b038381166000818152606a6020908152604080832094871680845294825291829020805460ff191686151590811790915591519182527f17307eab39ab6107e8899845ad3d59bd9653f200f220920489ca2b5937696c31910160405180910390a3505050565b61278c82826116c0565b15610f2d5760008281526101f8602090815260408083206001600160a01b0385168085529252808320805460ff1916905551909184917f708f1c3522caddc3f4266f87a63148078e0803ccc35ab7b4bc729f5863f463539190a35050565b600054610100900460ff166128115760405162461bcd60e51b81526004016109bb90613d9d565b610f2d8282612e8d565b600054610100900460ff166128425760405162461bcd60e51b81526004016109bb90613d9d565b565b600054610100900460ff1661286b5760405162461bcd60e51b81526004016109bb90613d9d565b612842612edb565b600054610100900460ff1661289a5760405162461bcd60e51b81526004016109bb90613d9d565b610f2d8282612f0e565b600054610100900460ff166128bf5760005460ff16156128c3565b303b155b6128df5760405162461bcd60e51b81526004016109bb90613d29565b600054610100900460ff16158015612901576000805461ffff19166101011790555b61290961281b565b61291b6000612916611e82565b611f7d565b61293560008051602061410c833981519152612916611e82565b6129617f189ab7a9244df0848122154315af71fe140f3db0fe014031783b0946b8c9d2e3612916611e82565b801561100e576000805461ff001916905550565b6000818152606760205260409020546060906001600160a01b03166129f65760405162461bcd60e51b815260206004820152603160248201527f45524337323155524953746f726167653a2055524920717565727920666f72206044820152703737b732bc34b9ba32b73a103a37b5b2b760791b60648201526084016109bb565b600082815260c9602052604081208054612a0f90614029565b80601f0160208091040260200160405190810160405280929190818152602001828054612a3b90614029565b8015612a885780601f10612a5d57610100808354040283529160200191612a88565b820191906000526020600020905b815481529060010190602001808311612a6b57829003601f168201915b505050505090506000612aa660408051602081019091526000815290565b9050805160001415612ab9575092915050565b815115612aeb578082604051602001612ad3929190613b6c565b60405160208183030381529060405292505050919050565b612af484612f51565b949350505050565b612b0683836116c0565b610b035760008381526101f8602081815260408084206001600160a01b03871685528083529084208054600160ff1991821681179092559488905292909152810180549092161790558015610b03576040516001600160a01b0383169084907feca5cd72207e44a6cfefd583fd8df9a5498c3930b1c274e1a1c6d6318ba0cac490600090a3505050565b60006001600160e01b0319821663780e9d6360e01b14806108ae57506108ae82613038565b60606000612bc4836002613fb0565b612bcf906002613f84565b67ffffffffffffffff811115612bf557634e487b7160e01b600052604160045260246000fd5b6040519080825280601f01601f191660200182016040528015612c1f576020820181803683370190505b509050600360fc1b81600081518110612c4857634e487b7160e01b600052603260045260246000fd5b60200101906001600160f81b031916908160001a905350600f60fb1b81600181518110612c8557634e487b7160e01b600052603260045260246000fd5b60200101906001600160f81b031916908160001a9053506000612ca9846002613fb0565b612cb4906001613f84565b90505b6001811115612d48576f181899199a1a9b1b9c1cb0b131b232b360811b85600f1660108110612cf657634e487b7160e01b600052603260045260246000fd5b1a60f81b828281518110612d1a57634e487b7160e01b600052603260045260246000fd5b60200101906001600160f81b031916908160001a90535060049490941c93612d4181614012565b9050612cb7565b508315612d975760405162461bcd60e51b815260206004820181905260248201527f537472696e67733a20686578206c656e67746820696e73756666696369656e7460448201526064016109bb565b9392505050565b6001600160a01b0381163b612e0b5760405162461bcd60e51b815260206004820152602d60248201527f455243313936373a206e657720696d706c656d656e746174696f6e206973206e60448201526c1bdd08184818dbdb9d1c9858dd609a1b60648201526084016109bb565b6000805160206140ec83398151915280546001600160a01b0319166001600160a01b0392909216919091179055565b612e4383613088565b600082511180612e505750805b15610b035761166383836130c8565b60fb5460ff1615612e825760405162461bcd60e51b81526004016109bb90613cff565b610b038383836131bc565b600054610100900460ff16612eb45760405162461bcd60e51b81526004016109bb90613d9d565b8151612ec7906065906020850190613581565b508051610b03906066906020840190613581565b600054610100900460ff16612f025760405162461bcd60e51b81526004016109bb90613d9d565b60fb805460ff19169055565b600054610100900460ff16612f355760405162461bcd60e51b81526004016109bb90613d9d565b8151602092830120815191909201206101929190915561019355565b6000818152606760205260409020546060906001600160a01b0316612fd05760405162461bcd60e51b815260206004820152602f60248201527f4552433732314d657461646174613a2055524920717565727920666f72206e6f60448201526e3732bc34b9ba32b73a103a37b5b2b760891b60648201526084016109bb565b6000612fe760408051602081019091526000815290565b905060008151116130075760405180602001604052806000815250612d97565b8061301184613274565b604051602001613022929190613b6c565b6040516020818303038152906040529392505050565b60006001600160e01b031982166380ac58cd60e01b148061306957506001600160e01b03198216635b5e139f60e01b145b806108ae57506301ffc9a760e01b6001600160e01b03198316146108ae565b61309181612d9e565b6040516001600160a01b038216907fbc7cd75a20ee27fd9adebab32041f755214dbc6bffa90cc0225b39da2e5c2d3b90600090a250565b60606001600160a01b0383163b6131305760405162461bcd60e51b815260206004820152602660248201527f416464726573733a2064656c65676174652063616c6c20746f206e6f6e2d636f6044820152651b9d1c9858dd60d21b60648201526084016109bb565b600080846001600160a01b03168460405161314b9190613b50565b600060405180830381855af49150503d8060008114613186576040519150601f19603f3d011682016040523d82523d6000602084013e61318b565b606091505b50915091506131b3828260405180606001604052806027815260200161412c6027913961338e565b95945050505050565b6001600160a01b0383166132175761321281609980546000838152609a60205260408120829055600182018355919091527f72a152ddfb8e864297c917af52ea6c1c68aead0fee1a62673fcc7e0c94979d000155565b61323a565b816001600160a01b0316836001600160a01b03161461323a5761323a83826133c7565b6001600160a01b03821661325157610b0381613464565b826001600160a01b0316826001600160a01b031614610b0357610b03828261353d565b6060816132985750506040805180820190915260018152600360fc1b602082015290565b8160005b81156132c257806132ac81614064565b91506132bb9050600a83613f9c565b915061329c565b60008167ffffffffffffffff8111156132eb57634e487b7160e01b600052604160045260246000fd5b6040519080825280601f01601f191660200182016040528015613315576020820181803683370190505b5090505b8415612af45761332a600183613fcf565b9150613337600a8661407f565b613342906030613f84565b60f81b81838151811061336557634e487b7160e01b600052603260045260246000fd5b60200101906001600160f81b031916908160001a905350613387600a86613f9c565b9450613319565b6060831561339d575081612d97565b8251156133ad5782518084602001fd5b8160405162461bcd60e51b81526004016109bb9190613c54565b600060016133d484611531565b6133de9190613fcf565b600083815260986020526040902054909150808214613431576001600160a01b03841660009081526097602090815260408083208584528252808320548484528184208190558352609890915290208190555b5060009182526098602090815260408084208490556001600160a01b039094168352609781528383209183525290812055565b60995460009061347690600190613fcf565b6000838152609a6020526040812054609980549394509092849081106134ac57634e487b7160e01b600052603260045260246000fd5b9060005260206000200154905080609983815481106134db57634e487b7160e01b600052603260045260246000fd5b6000918252602080832090910192909255828152609a9091526040808220849055858252812055609980548061352157634e487b7160e01b600052603160045260246000fd5b6001900381819060005260206000200160009055905550505050565b600061354883611531565b6001600160a01b039093166000908152609760209081526040808320868452825280832085905593825260989052919091209190915550565b82805461358d90614029565b90600052602060002090601f0160209004810192826135af57600085556135f5565b82601f106135c857805160ff19168380011785556135f5565b828001600101855582156135f5579182015b828111156135f55782518255916020019190600101906135da565b50613601929150613605565b5090565b5b808211156136015760008155600101613606565b80356001600160a01b038116811461363157600080fd5b919050565b60008083601f840112613647578182fd5b50813567ffffffffffffffff81111561365e578182fd5b6020830191508360208260051b850101111561367957600080fd5b9250929050565b8035801515811461363157600080fd5b600082601f8301126136a0578081fd5b813567ffffffffffffffff8111156136ba576136ba6140bf565b6136cd601f8201601f1916602001613f53565b8181528460208386010111156136e1578283fd5b816020850160208301379081016020019190915292915050565b60006020828403121561370c578081fd5b612d978261361a565b60008060408385031215613727578081fd5b6137308361361a565b915061373e6020840161361a565b90509250929050565b60008060006060848603121561375b578081fd5b6137648461361a565b92506137726020850161361a565b9150604084013590509250925092565b60008060008060808587031215613797578081fd5b6137a08561361a565b93506137ae6020860161361a565b925060408501359150606085013567ffffffffffffffff8111156137d0578182fd5b6137dc87828801613690565b91505092959194509250565b600080604083850312156137fa578182fd5b6138038361361a565b915061373e60208401613680565b60008060408385031215613823578182fd5b61382c8361361a565b9150602083013567ffffffffffffffff811115613847578182fd5b61385385828601613690565b9150509250929050565b6000806040838503121561386f578182fd5b6138788361361a565b946020939093013593505050565b60008060208385031215613898578081fd5b823567ffffffffffffffff8111156138ae578182fd5b6138ba85828601613636565b90969095509350505050565b6000602082840312156138d7578081fd5b5035919050565b6000602082840312156138ef578081fd5b5051919050565b60008060408385031215613908578182fd5b8235915061373e6020840161361a565b600060208284031215613929578081fd5b8135612d97816140d5565b600080600060608486031215613948578081fd5b833567ffffffffffffffff8082111561395f578283fd5b61396b87838801613690565b9450602091508186013581811115613981578384fd5b61398d88828901613690565b9450506040860135818111156139a1578384fd5b8601601f810188136139b1578384fd5b8035828111156139c3576139c36140bf565b8060051b92506139d4848401613f53565b8181528481019083860185850187018c10156139ee578788fd5b8795505b83861015613a1757613a038161361a565b8352600195909501949186019186016139f2565b508096505050505050509250925092565b600080600060608486031215613a3c578081fd5b83359250613a4c6020850161361a565b9150613a5a60408501613680565b90509250925092565b60008060008060008060006080888a031215613a7d578485fd5b87359650602088013567ffffffffffffffff80821115613a9b578687fd5b613aa78b838c01613636565b909850965060408a0135915080821115613abf578485fd5b613acb8b838c01613636565b909650945060608a0135915080821115613ae3578384fd5b50613af08a828b01613636565b989b979a50959850939692959293505050565b600060208284031215613b14578081fd5b813560ff81168114612d97578182fd5b60008151808452613b3c816020860160208601613fe6565b601f01601f19169290920160200192915050565b60008251613b62818460208701613fe6565b9190910192915050565b60008351613b7e818460208801613fe6565b835190830190613b92818360208801613fe6565b01949350505050565b7f416363657373436f6e74726f6c3a206163636f756e7420000000000000000000815260008351613bd3816017850160208801613fe6565b7001034b99036b4b9b9b4b733903937b6329607d1b6017918401918201528351613c04816028840160208801613fe6565b01602801949350505050565b6020808252825182820181905260009190848201906040850190845b81811015613c4857835183529284019291840191600101613c2c565b50909695505050505050565b602081526000612d976020830184613b24565b6020808252602c908201527f46756e6374696f6e206d7573742062652063616c6c6564207468726f7567682060408201526b19195b1959d85d1958d85b1b60a21b606082015260800190565b6020808252602c908201527f46756e6374696f6e206d7573742062652063616c6c6564207468726f7567682060408201526b6163746976652070726f787960a01b606082015260800190565b60208082526010908201526f14185d5cd8589b194e881c185d5cd95960821b604082015260600190565b6020808252602e908201527f496e697469616c697a61626c653a20636f6e747261637420697320616c72656160408201526d191e481a5b9a5d1a585b1a5e995960921b606082015260800190565b6020808252600c908201526b2737ba1020b8383937bb32b960a11b604082015260600190565b6020808252602b908201527f496e697469616c697a61626c653a20636f6e7472616374206973206e6f74206960408201526a6e697469616c697a696e6760a81b606082015260800190565b602081526000825160a06020840152613e0460c0840182613b24565b905060018060a01b036020850151166040840152604084015115156060840152606084015115156080840152608084015160a08401528091505092915050565b602081526000825160606020840152613e606080840182613b24565b90506020840151601f19848303016040850152613e7d8282613b24565b9150506040840151151560608401528091505092915050565b84815260006020608081840152613eb06080840187613b24565b8381036040850152855180825282870191830190845b81811015613eeb5783516001600160a01b031683529284019291840191600101613ec6565b50506001600160a01b039590951660609490940193909352509195945050505050565b6000808335601e19843603018112613f24578283fd5b83018035915067ffffffffffffffff821115613f3e578283fd5b60200191503681900382131561367957600080fd5b604051601f8201601f1916810167ffffffffffffffff81118282101715613f7c57613f7c6140bf565b604052919050565b60008219821115613f9757613f97614093565b500190565b600082613fab57613fab6140a9565b500490565b6000816000190483118215151615613fca57613fca614093565b500290565b600082821015613fe157613fe1614093565b500390565b60005b83811015614001578181015183820152602001613fe9565b838111156116635750506000910152565b60008161402157614021614093565b506000190190565b600181811c9082168061403d57607f821691505b6020821081141561405e57634e487b7160e01b600052602260045260246000fd5b50919050565b600060001982141561407857614078614093565b5060010190565b60008261408e5761408e6140a9565b500690565b634e487b7160e01b600052601160045260246000fd5b634e487b7160e01b600052601260045260246000fd5b634e487b7160e01b600052604160045260246000fd5b6001600160e01b03198116811461100e57600080fdfe360894a13ba1a3210667c828492db98dca3e2076cc3735a920a3ca505d382bbc65d7a28e3265b37a6474929f336521b332c1681b933f6cb9f3376673440d862a416464726573733a206c6f772d6c6576656c2064656c65676174652063616c6c206661696c6564a2646970667358221220f40eb99a48726a545dbfa214b6d409e6e65a0115c63485b6681ba234c0449fb264736f6c63430008040033",
  "linkReferences": {},
  "deployedLinkReferences": {}
}