{
  "_format": "hh-sol-artifact-1",
  "contractName": "POCP",
  "sourceName": "contracts/POCP.sol",
  "abi": [
    {
      "anonymous": false,
      "inputs": [
        {
          "indexed": false,
          "internalType": "address",
          "name": "previousAdmin",
          "type": "address"
        },
        {
          "indexed": false,
          "internalType": "address",
          "name": "newAdmin",
          "type": "address"
        }
      ],
      "name": "AdminChanged",
      "type": "event"
    },
    {
      "anonymous": false,
      "inputs": [
        {
          "indexed": true,
          "internalType": "address",
          "name": "owner",
          "type": "address"
        },
        {
          "indexed": true,
          "internalType": "address",
          "name": "approved",
          "type": "address"
        },
        {
          "indexed": true,
          "internalType": "uint256",
          "name": "tokenId",
          "type": "uint256"
        }
      ],
      "name": "Approval",
      "type": "event"
    },
    {
      "anonymous": false,
      "inputs": [
        {
          "indexed": true,
          "internalType": "address",
          "name": "owner",
          "type": "address"
        },
        {
          "indexed": true,
          "internalType": "address",
          "name": "operator",
          "type": "address"
        },
        {
          "indexed": false,
          "internalType": "bool",
          "name": "approved",
          "type": "bool"
        }
      ],
      "name": "ApprovalForAll",
      "type": "event"
    },
    {
      "anonymous": false,
      "inputs": [
        {
          "indexed": true,
          "internalType": "uint256",
          "name": "communityId",
          "type": "uint256"
        },
        {
          "indexed": true,
          "internalType": "address",
          "name": "account",
          "type": "address"
        }
      ],
      "name": "ApproverAdded",
      "type": "event"
    },
    {
      "anonymous": false,
      "inputs": [
        {
          "indexed": true,
          "internalType": "uint256",
          "name": "communityId",
          "type": "uint256"
        },
        {
          "indexed": true,
          "internalType": "address",
          "name": "account",
          "type": "address"
        }
      ],
      "name": "ApproverRemoved",
      "type": "event"
    },
    {
      "anonymous": false,
      "inputs": [
        {
          "indexed": true,
          "internalType": "address",
          "name": "beacon",
          "type": "address"
        }
      ],
      "name": "BeaconUpgraded",
      "type": "event"
    },
    {
      "anonymous": false,
      "inputs": [
        {
          "indexed": false,
          "internalType": "uint256",
          "name": "communityId",
          "type": "uint256"
        },
        {
          "indexed": false,
          "internalType": "string",
          "name": "communityName",
          "type": "string"
        },
        {
          "indexed": false,
          "internalType": "address",
          "name": "txSigner",
          "type": "address"
        }
      ],
      "name": "CommunityRegistered",
      "type": "event"
    },
    {
      "anonymous": false,
      "inputs": [
        {
          "indexed": false,
          "internalType": "address",
          "name": "account",
          "type": "address"
        }
      ],
      "name": "Paused",
      "type": "event"
    },
    {
      "anonymous": false,
      "inputs": [
        {
          "indexed": true,
          "internalType": "bytes32",
          "name": "role",
          "type": "bytes32"
        },
        {
          "indexed": true,
          "internalType": "bytes32",
          "name": "previousAdminRole",
          "type": "bytes32"
        },
        {
          "indexed": true,
          "internalType": "bytes32",
          "name": "newAdminRole",
          "type": "bytes32"
        }
      ],
      "name": "RoleAdminChanged",
      "type": "event"
    },
    {
      "anonymous": false,
      "inputs": [
        {
          "indexed": true,
          "internalType": "bytes32",
          "name": "role",
          "type": "bytes32"
        },
        {
          "indexed": true,
          "internalType": "address",
          "name": "account",
          "type": "address"
        },
        {
          "indexed": true,
          "internalType": "address",
          "name": "sender",
          "type": "address"
        }
      ],
      "name": "RoleGranted",
      "type": "event"
    },
    {
      "anonymous": false,
      "inputs": [
        {
          "indexed": true,
          "internalType": "bytes32",
          "name": "role",
          "type": "bytes32"
        },
        {
          "indexed": true,
          "internalType": "address",
          "name": "account",
          "type": "address"
        },
        {
          "indexed": true,
          "internalType": "address",
          "name": "sender",
          "type": "address"
        }
      ],
      "name": "RoleRevoked",
      "type": "event"
    },
    {
      "anonymous": false,
      "inputs": [
        {
          "indexed": true,
          "internalType": "address",
          "name": "from",
          "type": "address"
        },
        {
          "indexed": true,
          "internalType": "address",
          "name": "to",
          "type": "address"
        },
        {
          "indexed": true,
          "internalType": "uint256",
          "name": "tokenId",
          "type": "uint256"
        }
      ],
      "name": "Transfer",
      "type": "event"
    },
    {
      "anonymous": false,
      "inputs": [
        {
          "indexed": false,
          "internalType": "address",
          "name": "account",
          "type": "address"
        }
      ],
      "name": "Unpaused",
      "type": "event"
    },
    {
      "anonymous": false,
      "inputs": [
        {
          "indexed": true,
          "internalType": "address",
          "name": "implementation",
          "type": "address"
        }
      ],
      "name": "Upgraded",
      "type": "event"
    },
    {
      "inputs": [],
      "name": "DEFAULT_ADMIN_ROLE",
      "outputs": [
        {
          "internalType": "bytes32",
          "name": "",
          "type": "bytes32"
        }
      ],
      "stateMutability": "view",
      "type": "function"
    },
    {
      "inputs": [],
      "name": "PAUSER_ROLE",
      "outputs": [
        {
          "internalType": "bytes32",
          "name": "",
          "type": "bytes32"
        }
      ],
      "stateMutability": "view",
      "type": "function"
    },
    {
      "inputs": [],
      "name": "UPGRADER_ROLE",
      "outputs": [
        {
          "internalType": "bytes32",
          "name": "",
          "type": "bytes32"
        }
      ],
      "stateMutability": "view",
      "type": "function"
    },
    {
      "inputs": [
        {
          "internalType": "uint256",
          "name": "communityId",
          "type": "uint256"
        },
        {
          "internalType": "address",
          "name": "account",
          "type": "address"
        }
      ],
      "name": "addApprover",
      "outputs": [],
      "stateMutability": "nonpayable",
      "type": "function"
    },
    {
      "inputs": [
        {
          "internalType": "address",
          "name": "to",
          "type": "address"
        },
        {
          "internalType": "uint256",
          "name": "tokenId",
          "type": "uint256"
        }
      ],
      "name": "approve",
      "outputs": [],
      "stateMutability": "nonpayable",
      "type": "function"
    },
    {
      "inputs": [
        {
          "internalType": "address",
          "name": "owner",
          "type": "address"
        }
      ],
      "name": "balanceOf",
      "outputs": [
        {
          "internalType": "uint256",
          "name": "",
          "type": "uint256"
        }
      ],
      "stateMutability": "view",
      "type": "function"
    },
    {
      "inputs": [
        {
          "components": [
            {
              "internalType": "uint256",
              "name": "tokenId",
              "type": "uint256"
            },
            {
              "internalType": "uint256",
              "name": "communityId",
              "type": "uint256"
            },
            {
              "internalType": "string",
              "name": "uri",
              "type": "string"
            },
            {
              "internalType": "address",
              "name": "approvedFor",
              "type": "address"
            },
            {
              "internalType": "address",
              "name": "approvedBy",
              "type": "address"
            },
            {
              "internalType": "bytes",
              "name": "signature",
              "type": "bytes"
            }
          ],
          "internalType": "struct POCP.NFTVoucher",
          "name": "voucher",
          "type": "tuple"
        }
      ],
      "name": "claim",
      "outputs": [
        {
          "internalType": "uint256",
          "name": "",
          "type": "uint256"
        }
      ],
      "stateMutability": "payable",
      "type": "function"
    },
    {
      "inputs": [
        {
          "internalType": "uint256",
          "name": "community_id",
          "type": "uint256"
        }
      ],
      "name": "community",
      "outputs": [
        {
          "components": [
            {
              "internalType": "string",
              "name": "name",
              "type": "string"
            },
            {
              "internalType": "string",
              "name": "uri",
              "type": "string"
            },
            {
              "internalType": "bool",
              "name": "initiated",
              "type": "bool"
            }
          ],
          "internalType": "struct POCP.Community",
          "name": "",
          "type": "tuple"
        }
      ],
      "stateMutability": "view",
      "type": "function"
    },
    {
      "inputs": [
        {
          "internalType": "uint256",
          "name": "communityId",
          "type": "uint256"
        }
      ],
      "name": "communityTokens",
      "outputs": [
        {
          "internalType": "uint256[]",
          "name": "",
          "type": "uint256[]"
        }
      ],
      "stateMutability": "view",
      "type": "function"
    },
    {
      "inputs": [
        {
          "internalType": "bytes32",
          "name": "",
          "type": "bytes32"
        }
      ],
      "name": "daos",
      "outputs": [
        {
          "internalType": "bytes32",
          "name": "",
          "type": "bytes32"
        }
      ],
      "stateMutability": "view",
      "type": "function"
    },
    {
      "inputs": [
        {
          "internalType": "uint256",
          "name": "tokenId",
          "type": "uint256"
        }
      ],
      "name": "getApproved",
      "outputs": [
        {
          "internalType": "address",
          "name": "",
          "type": "address"
        }
      ],
      "stateMutability": "view",
      "type": "function"
    },
    {
      "inputs": [],
      "name": "getChainID",
      "outputs": [
        {
          "internalType": "uint256",
          "name": "",
          "type": "uint256"
        }
      ],
      "stateMutability": "view",
      "type": "function"
    },
    {
      "inputs": [
        {
          "internalType": "bytes32",
          "name": "role",
          "type": "bytes32"
        }
      ],
      "name": "getRoleAdmin",
      "outputs": [
        {
          "internalType": "bytes32",
          "name": "",
          "type": "bytes32"
        }
      ],
      "stateMutability": "view",
      "type": "function"
    },
    {
      "inputs": [],
      "name": "getTrustedForwarder",
      "outputs": [
        {
          "internalType": "address",
          "name": "",
          "type": "address"
        }
      ],
      "stateMutability": "view",
      "type": "function"
    },
    {
      "inputs": [
        {
          "internalType": "bytes32",
          "name": "role",
          "type": "bytes32"
        },
        {
          "internalType": "address",
          "name": "account",
          "type": "address"
        }
      ],
      "name": "grantRole",
      "outputs": [],
      "stateMutability": "nonpayable",
      "type": "function"
    },
    {
      "inputs": [
        {
          "internalType": "bytes32",
          "name": "role",
          "type": "bytes32"
        },
        {
          "internalType": "address",
          "name": "account",
          "type": "address"
        }
      ],
      "name": "hasRole",
      "outputs": [
        {
          "internalType": "bool",
          "name": "",
          "type": "bool"
        }
      ],
      "stateMutability": "view",
      "type": "function"
    },
    {
      "inputs": [
        {
          "internalType": "address",
          "name": "trustedForwarder",
          "type": "address"
        }
      ],
      "name": "initialize",
      "outputs": [],
      "stateMutability": "nonpayable",
      "type": "function"
    },
    {
      "inputs": [
        {
          "internalType": "address",
          "name": "owner",
          "type": "address"
        },
        {
          "internalType": "address",
          "name": "operator",
          "type": "address"
        }
      ],
      "name": "isApprovedForAll",
      "outputs": [
        {
          "internalType": "bool",
          "name": "",
          "type": "bool"
        }
      ],
      "stateMutability": "view",
      "type": "function"
    },
    {
      "inputs": [
        {
          "internalType": "uint256",
          "name": "communityId",
          "type": "uint256"
        },
        {
          "internalType": "address",
          "name": "account",
          "type": "address"
        }
      ],
      "name": "isApprover",
      "outputs": [
        {
          "internalType": "bool",
          "name": "",
          "type": "bool"
        }
      ],
      "stateMutability": "view",
      "type": "function"
    },
    {
      "inputs": [
        {
          "internalType": "address",
          "name": "forwarder",
          "type": "address"
        }
      ],
      "name": "isTrustedForwarder",
      "outputs": [
        {
          "internalType": "bool",
          "name": "",
          "type": "bool"
        }
      ],
      "stateMutability": "view",
      "type": "function"
    },
    {
      "inputs": [],
      "name": "name",
      "outputs": [
        {
          "internalType": "string",
          "name": "",
          "type": "string"
        }
      ],
      "stateMutability": "view",
      "type": "function"
    },
    {
      "inputs": [
        {
          "internalType": "uint256",
          "name": "tokenId",
          "type": "uint256"
        }
      ],
      "name": "ownerOf",
      "outputs": [
        {
          "internalType": "address",
          "name": "",
          "type": "address"
        }
      ],
      "stateMutability": "view",
      "type": "function"
    },
    {
      "inputs": [],
      "name": "pause",
      "outputs": [],
      "stateMutability": "nonpayable",
      "type": "function"
    },
    {
      "inputs": [],
      "name": "paused",
      "outputs": [
        {
          "internalType": "bool",
          "name": "",
          "type": "bool"
        }
      ],
      "stateMutability": "view",
      "type": "function"
    },
    {
      "inputs": [
        {
          "internalType": "string",
          "name": "communityName",
          "type": "string"
        },
        {
          "internalType": "string",
          "name": "communityUri",
          "type": "string"
        },
        {
          "internalType": "address[]",
          "name": "approvers",
          "type": "address[]"
        }
      ],
      "name": "register",
      "outputs": [],
      "stateMutability": "nonpayable",
      "type": "function"
    },
    {
      "inputs": [
        {
          "internalType": "uint256",
          "name": "communityId",
          "type": "uint256"
        },
        {
          "internalType": "address",
          "name": "account",
          "type": "address"
        }
      ],
      "name": "removeApprover",
      "outputs": [],
      "stateMutability": "nonpayable",
      "type": "function"
    },
    {
      "inputs": [
        {
          "internalType": "bytes32",
          "name": "role",
          "type": "bytes32"
        },
        {
          "internalType": "address",
          "name": "account",
          "type": "address"
        }
      ],
      "name": "renounceRole",
      "outputs": [],
      "stateMutability": "nonpayable",
      "type": "function"
    },
    {
      "inputs": [
        {
          "internalType": "bytes32",
          "name": "role",
          "type": "bytes32"
        },
        {
          "internalType": "address",
          "name": "account",
          "type": "address"
        }
      ],
      "name": "revokeRole",
      "outputs": [],
      "stateMutability": "nonpayable",
      "type": "function"
    },
    {
      "inputs": [
        {
          "internalType": "address",
          "name": "to",
          "type": "address"
        },
        {
          "internalType": "uint256",
          "name": "tokenId",
          "type": "uint256"
        }
      ],
      "name": "safeMint",
      "outputs": [],
      "stateMutability": "nonpayable",
      "type": "function"
    },
    {
      "inputs": [
        {
          "internalType": "address",
          "name": "from",
          "type": "address"
        },
        {
          "internalType": "address",
          "name": "to",
          "type": "address"
        },
        {
          "internalType": "uint256",
          "name": "tokenId",
          "type": "uint256"
        }
      ],
      "name": "safeTransferFrom",
      "outputs": [],
      "stateMutability": "nonpayable",
      "type": "function"
    },
    {
      "inputs": [
        {
          "internalType": "address",
          "name": "from",
          "type": "address"
        },
        {
          "internalType": "address",
          "name": "to",
          "type": "address"
        },
        {
          "internalType": "uint256",
          "name": "tokenId",
          "type": "uint256"
        },
        {
          "internalType": "bytes",
          "name": "_data",
          "type": "bytes"
        }
      ],
      "name": "safeTransferFrom",
      "outputs": [],
      "stateMutability": "nonpayable",
      "type": "function"
    },
    {
      "inputs": [
        {
          "internalType": "address",
          "name": "operator",
          "type": "address"
        },
        {
          "internalType": "bool",
          "name": "approved",
          "type": "bool"
        }
      ],
      "name": "setApprovalForAll",
      "outputs": [],
      "stateMutability": "nonpayable",
      "type": "function"
    },
    {
      "inputs": [
        {
          "internalType": "bytes4",
          "name": "interfaceId",
          "type": "bytes4"
        }
      ],
      "name": "supportsInterface",
      "outputs": [
        {
          "internalType": "bool",
          "name": "",
          "type": "bool"
        }
      ],
      "stateMutability": "view",
      "type": "function"
    },
    {
      "inputs": [],
      "name": "symbol",
      "outputs": [
        {
          "internalType": "string",
          "name": "",
          "type": "string"
        }
      ],
      "stateMutability": "view",
      "type": "function"
    },
    {
      "inputs": [
        {
          "internalType": "uint256",
          "name": "index",
          "type": "uint256"
        }
      ],
      "name": "tokenByIndex",
      "outputs": [
        {
          "internalType": "uint256",
          "name": "",
          "type": "uint256"
        }
      ],
      "stateMutability": "view",
      "type": "function"
    },
    {
      "inputs": [
        {
          "internalType": "address",
          "name": "owner",
          "type": "address"
        },
        {
          "internalType": "uint256",
          "name": "index",
          "type": "uint256"
        }
      ],
      "name": "tokenOfOwnerByIndex",
      "outputs": [
        {
          "internalType": "uint256",
          "name": "",
          "type": "uint256"
        }
      ],
      "stateMutability": "view",
      "type": "function"
    },
    {
      "inputs": [
        {
          "internalType": "uint256",
          "name": "tokenId",
          "type": "uint256"
        }
      ],
      "name": "tokenURI",
      "outputs": [
        {
          "internalType": "string",
          "name": "",
          "type": "string"
        }
      ],
      "stateMutability": "view",
      "type": "function"
    },
    {
      "inputs": [],
      "name": "totalCommunities",
      "outputs": [
        {
          "internalType": "uint256",
          "name": "",
          "type": "uint256"
        }
      ],
      "stateMutability": "view",
      "type": "function"
    },
    {
      "inputs": [],
      "name": "totalSupply",
      "outputs": [
        {
          "internalType": "uint256",
          "name": "",
          "type": "uint256"
        }
      ],
      "stateMutability": "view",
      "type": "function"
    },
    {
      "inputs": [
        {
          "internalType": "address",
          "name": "from",
          "type": "address"
        },
        {
          "internalType": "address",
          "name": "to",
          "type": "address"
        },
        {
          "internalType": "uint256",
          "name": "tokenId",
          "type": "uint256"
        }
      ],
      "name": "transferFrom",
      "outputs": [],
      "stateMutability": "nonpayable",
      "type": "function"
    },
    {
      "inputs": [],
      "name": "unpause",
      "outputs": [],
      "stateMutability": "nonpayable",
      "type": "function"
    },
    {
      "inputs": [
        {
          "internalType": "address",
          "name": "newImplementation",
          "type": "address"
        }
      ],
      "name": "upgradeTo",
      "outputs": [],
      "stateMutability": "nonpayable",
      "type": "function"
    },
    {
      "inputs": [
        {
          "internalType": "address",
          "name": "newImplementation",
          "type": "address"
        },
        {
          "internalType": "bytes",
          "name": "data",
          "type": "bytes"
        }
      ],
      "name": "upgradeToAndCall",
      "outputs": [],
      "stateMutability": "payable",
      "type": "function"
    }
  ],
  "bytecode": "0x60a06040523060601b60805234801561001757600080fd5b5060805160601c613e6961004b600039600081816110a9015281816110e90152818161119501526111d50152613e696000f3fe60806040526004361061025c5760003560e01c8063572b6c0511610144578063bb6c352c116100b6578063d3e4047a1161007a578063d3e4047a146106f0578063d547741f1461071d578063e63ab1e91461073d578063e985e9c51461075f578063f72c0d8b146107a8578063fcb4d206146107dc57600080fd5b8063bb6c352c14610651578063c3759eb814610671578063c4d66de814610691578063c87b56dd146106b1578063ce1b815f146106d157600080fd5b806391d148541161010857806391d14854146105ac57806395d89b41146105cc578063a1448194146105e1578063a217fddf14610601578063a22cb46514610616578063b88d4fde1461063657600080fd5b8063572b6c051461050f5780635c975abb1461053f5780636352211e1461055757806370a08231146105775780638456cb591461059757600080fd5b80632f2ff15d116101dd5780633f4ba83a116101a15780633f4ba83a1461049457806342842e0e146103755780634f1ef286146104a95780634f6ccce7146104bc5780635317234e146104dc578063564b81ef146104fc57600080fd5b80632f2ff15d146103e65780632f745c59146104065780632fa2cc4e1461042657806336568abe146104545780633659cfe61461047457600080fd5b806314de72d41161022457806314de72d41461033357806318160ddd1461036057806323b872dd14610375578063248a9ca3146103955780632b033699146103c657600080fd5b806301ffc9a71461026157806306fdde0314610296578063081812fc146102b8578063095ea7b3146102f05780631415443214610312575b600080fd5b34801561026d57600080fd5b5061028161027c366004613796565b6107f3565b60405190151581526020015b60405180910390f35b3480156102a257600080fd5b506102ab610804565b60405161028d9190613a1e565b3480156102c457600080fd5b506102d86102d336600461375c565b610896565b6040516001600160a01b03909116815260200161028d565b3480156102fc57600080fd5b5061031061030b366004613733565b610930565b005b6103256103203660046138a6565b610a58565b60405190815260200161028d565b34801561033f57600080fd5b5061035361034e36600461375c565b610c7a565b60405161028d9190613b8c565b34801561036c57600080fd5b50609954610325565b34801561038157600080fd5b5061031061039036600461360c565b610dea565b3480156103a157600080fd5b506103256103b036600461375c565b60009081526101c6602052604090206001015490565b3480156103d257600080fd5b506103106103e13660046137b2565b610e29565b3480156103f257600080fd5b50610310610401366004613774565b610f4c565b34801561041257600080fd5b50610325610421366004613733565b610f7a565b34801561043257600080fd5b5061032561044136600461375c565b61012d6020526000908152604090205481565b34801561046057600080fd5b5061031061046f366004613774565b611010565b34801561048057600080fd5b5061031061048f3660046135c0565b61109e565b3480156104a057600080fd5b50610310611167565b6103106104b73660046136e7565b61118a565b3480156104c857600080fd5b506103256104d736600461375c565b611240565b3480156104e857600080fd5b506103106104f7366004613774565b6112e1565b34801561050857600080fd5b5046610325565b34801561051b57600080fd5b5061028161052a3660046135c0565b61022b546001600160a01b0391821691161490565b34801561054b57600080fd5b5060fb5460ff16610281565b34801561056357600080fd5b506102d861057236600461375c565b61135d565b34801561058357600080fd5b506103256105923660046135c0565b6113d4565b3480156105a357600080fd5b5061031061145b565b3480156105b857600080fd5b506102816105c7366004613774565b61147e565b3480156105d857600080fd5b506102ab6114aa565b3480156105ed57600080fd5b506103106105fc366004613733565b6114b9565b34801561060d57600080fd5b50610325600081565b34801561062257600080fd5b506103106106313660046136ad565b6114f4565b34801561064257600080fd5b50610310610390366004613647565b34801561065d57600080fd5b5061031061066c366004613774565b611506565b34801561067d57600080fd5b5061028161068c366004613774565b61157c565b34801561069d57600080fd5b506103106106ac3660046135c0565b6115a8565b3480156106bd57600080fd5b506102ab6106cc36600461375c565b6116f5565b3480156106dd57600080fd5b5061022b546001600160a01b03166102d8565b3480156106fc57600080fd5b5061071061070b36600461375c565b611700565b60405161028d91906139da565b34801561072957600080fd5b50610310610738366004613774565b611763565b34801561074957600080fd5b50610325600080516020613ded83398151915281565b34801561076b57600080fd5b5061028161077a3660046135da565b6001600160a01b039182166000908152606a6020908152604080832093909416825291909152205460ff1690565b3480156107b457600080fd5b506103257f189ab7a9244df0848122154315af71fe140f3db0fe014031783b0946b8c9d2e381565b3480156107e857600080fd5b5061032561022d5481565b60006107fe8261178c565b92915050565b60606065805461081390613d2a565b80601f016020809104026020016040519081016040528092919081815260200182805461083f90613d2a565b801561088c5780601f106108615761010080835404028352916020019161088c565b820191906000526020600020905b81548152906001019060200180831161086f57829003601f168201915b5050505050905090565b6000818152606760205260408120546001600160a01b03166109145760405162461bcd60e51b815260206004820152602c60248201527f4552433732313a20617070726f76656420717565727920666f72206e6f6e657860448201526b34b9ba32b73a103a37b5b2b760a11b60648201526084015b60405180910390fd5b506000908152606960205260409020546001600160a01b031690565b600061093b8261135d565b9050806001600160a01b0316836001600160a01b031614156109a95760405162461bcd60e51b815260206004820152602160248201527f4552433732313a20617070726f76616c20746f2063757272656e74206f776e656044820152603960f91b606482015260840161090b565b806001600160a01b03166109bb6117b1565b6001600160a01b031614806109d757506109d78161077a6117b1565b610a495760405162461bcd60e51b815260206004820152603860248201527f4552433732313a20617070726f76652063616c6c6572206973206e6f74206f7760448201527f6e6572206e6f7220617070726f76656420666f7220616c6c0000000000000000606482015260840161090b565b610a5383836117df565b505050565b6000610a6660fb5460ff1690565b15610a835760405162461bcd60e51b815260040161090b90613ac9565b6000610a8e8361184d565b9050610a986117b1565b6001600160a01b0316610ab160808501606086016135c0565b6001600160a01b031614610b075760405162461bcd60e51b815260206004820152601d60248201527f4e6f7420617070726f76656420666f7220746869732061646472657373000000604482015260640161090b565b6001600160a01b038116610b2160a08501608086016135c0565b6001600160a01b031614610b775760405162461bcd60e51b815260206004820152601a60248201527f4e6f7420617070726f76656420627920746865207369676e6572000000000000604482015260640161090b565b602080840135600090815261022c909152604090206002015460ff16610bdf5760405162461bcd60e51b815260206004820152601860248201527f436f6d6d756e69747920646f6573206e6f742065786973740000000000000000604482015260640161090b565b610bea8184356118ad565b610c368335610bfc6040860186613c0f565b8080601f0160208091040260200160405190810160405280939291908181526020018383808284376000920191909152506119fb92505050565b610c4981610c426117b1565b8535611a95565b5050602080820135600090815261022e8252604081208054600181018255908252919020823591018190555b919050565b60408051606080820183528082526020820152600091810191909152600082815261022c602052604090819020815160608101909252805482908290610cbf90613d2a565b80601f0160208091040260200160405190810160405280929190818152602001828054610ceb90613d2a565b8015610d385780601f10610d0d57610100808354040283529160200191610d38565b820191906000526020600020905b815481529060010190602001808311610d1b57829003601f168201915b50505050508152602001600182018054610d5190613d2a565b80601f0160208091040260200160405190810160405280929190818152602001828054610d7d90613d2a565b8015610dca5780601f10610d9f57610100808354040283529160200191610dca565b820191906000526020600020905b815481529060010190602001808311610dad57829003601f168201915b50505091835250506002919091015460ff16151560209091015292915050565b60405162461bcd60e51b8152602060048201526014602482015273151c985b9cd9995c881b9bdd08105b1b1bddd95960621b604482015260640161090b565b61022d54604080516060810182528581526020808201869052600182840152600084815261022c8252929092208151805192938493610e6b92849201906134a5565b506020828101518051610e8492600185019201906134a5565b50604091909101516002909101805460ff191691151591909117905561022d54610eaf906001613c85565b61022d5560005b8351811015610f0257610ef083858381518110610ee357634e487b7160e01b600052603260045260246000fd5b60200260200101516112e1565b80610efa81613d65565b915050610eb6565b507face92cf234a98ee3719291804162de627309cddd21cca99a54eae87cce7a98bf8286610f2e6117b1565b604051610f3d93929190613bde565b60405180910390a15050505050565b60008281526101c66020526040902060010154610f7081610f6b6117b1565b611c40565b610a538383611ca4565b6000610f85836113d4565b8210610fe75760405162461bcd60e51b815260206004820152602b60248201527f455243373231456e756d657261626c653a206f776e657220696e646578206f7560448201526a74206f6620626f756e647360a81b606482015260840161090b565b506001600160a01b03919091166000908152609760209081526040808320938352929052205490565b6110186117b1565b6001600160a01b0316816001600160a01b0316146110905760405162461bcd60e51b815260206004820152602f60248201527f416363657373436f6e74726f6c3a2063616e206f6e6c792072656e6f756e636560448201526e103937b632b9903337b91039b2b63360891b606482015260840161090b565b61109a8282611d2c565b5050565b306001600160a01b037f00000000000000000000000000000000000000000000000000000000000000001614156110e75760405162461bcd60e51b815260040161090b90613a31565b7f00000000000000000000000000000000000000000000000000000000000000006001600160a01b0316611119611db2565b6001600160a01b03161461113f5760405162461bcd60e51b815260040161090b90613a7d565b61114881611de0565b6040805160008082526020820190925261116491839190611e0d565b50565b600080516020613ded83398151915261118281610f6b6117b1565b611164611f58565b306001600160a01b037f00000000000000000000000000000000000000000000000000000000000000001614156111d35760405162461bcd60e51b815260040161090b90613a31565b7f00000000000000000000000000000000000000000000000000000000000000006001600160a01b0316611205611db2565b6001600160a01b03161461122b5760405162461bcd60e51b815260040161090b90613a7d565b61123482611de0565b61109a82826001611e0d565b600061124b60995490565b82106112ae5760405162461bcd60e51b815260206004820152602c60248201527f455243373231456e756d657261626c653a20676c6f62616c20696e646578206f60448201526b7574206f6620626f756e647360a01b606482015260840161090b565b609982815481106112cf57634e487b7160e01b600052603260045260246000fd5b90600052602060002001549050919050565b816112ea6117b1565b6112f4828261157c565b80611312575060008281526101f8602052604090206001015460ff16155b61134d5760405162461bcd60e51b815260206004820152600c60248201526b2737ba1020b8383937bb32b960a11b604482015260640161090b565b6113578484611ff1565b50505050565b6000818152606760205260408120546001600160a01b0316806107fe5760405162461bcd60e51b815260206004820152602960248201527f4552433732313a206f776e657220717565727920666f72206e6f6e657869737460448201526832b73a103a37b5b2b760b91b606482015260840161090b565b60006001600160a01b03821661143f5760405162461bcd60e51b815260206004820152602a60248201527f4552433732313a2062616c616e636520717565727920666f7220746865207a65604482015269726f206164647265737360b01b606482015260840161090b565b506001600160a01b031660009081526068602052604090205490565b600080516020613ded83398151915261147681610f6b6117b1565b611164612076565b60009182526101c6602090815260408084206001600160a01b0393909316845291905290205460ff1690565b60606066805461081390613d2a565b60405162461bcd60e51b815260206004820152601060248201526f135a5b9d081b9bdd08105b1b1bddd95960821b604482015260640161090b565b61109a6114ff6117b1565b83836120cf565b8161150f6117b1565b611519828261157c565b80611537575060008281526101f8602052604090206001015460ff16155b6115725760405162461bcd60e51b815260206004820152600c60248201526b2737ba1020b8383937bb32b960a11b604482015260640161090b565b611357848461219e565b60009182526101f8602090815260408084206001600160a01b0393909316845291905290205460ff1690565b600054610100900460ff166115c35760005460ff16156115c7565b303b155b6115e35760405162461bcd60e51b815260040161090b90613af3565b600054610100900460ff16158015611605576000805461ffff19166101011790555b611647604051806040016040528060048152602001630504f43560e41b815250604051806040016040528060048152602001630504f43560e41b815250612206565b61164f612247565b611657612247565b61165f612288565b6116676122bf565b6116b66040518060400160405280601081526020016f26b4b734b6b0b62337b93bb0b93232b960811b81525060405180604001604052806005815260200164302e302e3160d81b8152506122e6565b6116be612317565b61022b80546001600160a01b0319166001600160a01b038416179055600061022d55801561109a576000805461ff00191690555050565b60606107fe826123e8565b600081815261022e602090815260409182902080548351818402810184019094528084526060939283018282801561175757602002820191906000526020600020905b815481526020019060010190808311611743575b50505050509050919050565b60008281526101c6602052604090206001015461178281610f6b6117b1565b610a538383611d2c565b60006001600160e01b03198216637965db0b60e01b14806107fe57506107fe8261256f565b61022b546000906001600160a01b03163314156117d5575060131936013560601c90565b503390565b905090565b600081815260696020526040902080546001600160a01b0319166001600160a01b03841690811790915581906118148261135d565b6001600160a01b03167f8c5be1e5ebec7d5bd14f71427d1e84f3dd0314c0f7b2291e5b200ac8c7c3b92560405160405180910390a45050565b60008061185983612594565b90506118a68161186c60a0860186613c0f565b8080601f01602080910402602001604051908101604052809392919081815260200183838082843760009201919091525061265892505050565b9392505050565b6001600160a01b0382166119035760405162461bcd60e51b815260206004820181905260248201527f4552433732313a206d696e7420746f20746865207a65726f2061646472657373604482015260640161090b565b6000818152606760205260409020546001600160a01b0316156119685760405162461bcd60e51b815260206004820152601c60248201527f4552433732313a20746f6b656e20616c7265616479206d696e74656400000000604482015260640161090b565b6119746000838361267c565b6001600160a01b038216600090815260686020526040812080546001929061199d908490613c85565b909155505060008181526067602052604080822080546001600160a01b0319166001600160a01b03861690811790915590518392907fddf252ad1be2c89b69c2b068fc378daa952ba7f163c4a11628f55a4df523b3ef908290a45050565b6000828152606760205260409020546001600160a01b0316611a765760405162461bcd60e51b815260206004820152602e60248201527f45524337323155524953746f726167653a2055524920736574206f66206e6f6e60448201526d32bc34b9ba32b73a103a37b5b2b760911b606482015260840161090b565b600082815260c9602090815260409091208251610a53928401906134a5565b826001600160a01b0316611aa88261135d565b6001600160a01b031614611b105760405162461bcd60e51b815260206004820152602960248201527f4552433732313a207472616e73666572206f6620746f6b656e2074686174206960448201526839903737ba1037bbb760b91b606482015260840161090b565b6001600160a01b038216611b725760405162461bcd60e51b8152602060048201526024808201527f4552433732313a207472616e7366657220746f20746865207a65726f206164646044820152637265737360e01b606482015260840161090b565b611b7d83838361267c565b611b886000826117df565b6001600160a01b0383166000908152606860205260408120805460019290611bb1908490613cd0565b90915550506001600160a01b0382166000908152606860205260408120805460019290611bdf908490613c85565b909155505060008181526067602052604080822080546001600160a01b0319166001600160a01b0386811691821790925591518493918716917fddf252ad1be2c89b69c2b068fc378daa952ba7f163c4a11628f55a4df523b3ef91a4505050565b611c4a828261147e565b61109a57611c62816001600160a01b031660146126aa565b611c6d8360206126aa565b604051602001611c7e929190613965565b60408051601f198184030181529082905262461bcd60e51b825261090b91600401613a1e565b611cae828261147e565b61109a5760008281526101c6602090815260408083206001600160a01b03851684529091529020805460ff19166001179055611ce86117b1565b6001600160a01b0316816001600160a01b0316837f2f8788117e7eff1d82e926ec794901d17c78024a50270940304540a733656f0d60405160405180910390a45050565b611d36828261147e565b1561109a5760008281526101c6602090815260408083206001600160a01b03851684529091529020805460ff19169055611d6e6117b1565b6001600160a01b0316816001600160a01b0316837ff6391f5c32d9c69d2a47ea670b442974b53935d1edc7fd64eb21e047a839171b60405160405180910390a45050565b7f360894a13ba1a3210667c828492db98dca3e2076cc3735a920a3ca505d382bbc546001600160a01b031690565b7f189ab7a9244df0848122154315af71fe140f3db0fe014031783b0946b8c9d2e361109a81610f6b6117b1565b6000611e17611db2565b9050611e228461288c565b600083511180611e2f5750815b15611e4057611e3e8484612931565b505b7f4910fdfa16fed3260ed0e7147f7cc6da11a60208b5b9406d12a635614ffd9143805460ff16611f5157805460ff191660011781556040516001600160a01b0383166024820152611ebf90869060440160408051601f198184030181529190526020810180516001600160e01b0316631b2ce7f360e11b179052612931565b50805460ff19168155611ed0611db2565b6001600160a01b0316826001600160a01b031614611f485760405162461bcd60e51b815260206004820152602f60248201527f45524331393637557067726164653a207570677261646520627265616b73206660448201526e75727468657220757067726164657360881b606482015260840161090b565b611f5185612a1c565b5050505050565b60fb5460ff16611fa15760405162461bcd60e51b815260206004820152601460248201527314185d5cd8589b194e881b9bdd081c185d5cd95960621b604482015260640161090b565b60fb805460ff191690557f5db9ee0a495bf2e6ff9c91a7834c1ba4fdd244a5e8aa4e537bd38aeae4b073aa611fd46117b1565b6040516001600160a01b03909116815260200160405180910390a1565b611ffb828261157c565b61109a5760008281526101f8602081815260408084206001600160a01b0386168086528184528286208054600160ff1991821681179092558988529590945290830180549094169092179092559051909184917feca5cd72207e44a6cfefd583fd8df9a5498c3930b1c274e1a1c6d6318ba0cac49190a35050565b60fb5460ff16156120995760405162461bcd60e51b815260040161090b90613ac9565b60fb805460ff191660011790557f62e78cea01bee320cd4e420270b5ea74000d11b0c9f74754ebdbfc544b05a258611fd46117b1565b816001600160a01b0316836001600160a01b031614156121315760405162461bcd60e51b815260206004820152601960248201527f4552433732313a20617070726f766520746f2063616c6c657200000000000000604482015260640161090b565b6001600160a01b038381166000818152606a6020908152604080832094871680845294825291829020805460ff191686151590811790915591519182527f17307eab39ab6107e8899845ad3d59bd9653f200f220920489ca2b5937696c31910160405180910390a3505050565b6121a8828261157c565b1561109a5760008281526101f8602090815260408083206001600160a01b0385168085529252808320805460ff1916905551909184917f708f1c3522caddc3f4266f87a63148078e0803ccc35ab7b4bc729f5863f463539190a35050565b600054610100900460ff1661222d5760405162461bcd60e51b815260040161090b90613b41565b612235612a5c565b61223d612a5c565b61109a8282612a83565b600054610100900460ff1661226e5760405162461bcd60e51b815260040161090b90613b41565b612276612a5c565b61227e612a5c565b612286612a5c565b565b600054610100900460ff166122af5760405162461bcd60e51b815260040161090b90613b41565b6122b7612a5c565b612286612ad1565b600054610100900460ff166122765760405162461bcd60e51b815260040161090b90613b41565b600054610100900460ff1661230d5760405162461bcd60e51b815260040161090b90613b41565b61109a8282612b04565b600054610100900460ff166123325760005460ff1615612336565b303b155b6123525760405162461bcd60e51b815260040161090b90613af3565b600054610100900460ff16158015612374576000805461ffff19166101011790555b61237c612247565b61238e60006123896117b1565b611ca4565b6123a8600080516020613ded8339815191526123896117b1565b6123d47f189ab7a9244df0848122154315af71fe140f3db0fe014031783b0946b8c9d2e36123896117b1565b8015611164576000805461ff001916905550565b6000818152606760205260409020546060906001600160a01b03166124695760405162461bcd60e51b815260206004820152603160248201527f45524337323155524953746f726167653a2055524920717565727920666f72206044820152703737b732bc34b9ba32b73a103a37b5b2b760791b606482015260840161090b565b600082815260c960205260408120805461248290613d2a565b80601f01602080910402602001604051908101604052809291908181526020018280546124ae90613d2a565b80156124fb5780601f106124d0576101008083540402835291602001916124fb565b820191906000526020600020905b8154815290600101906020018083116124de57829003601f168201915b50505050509050600061251960408051602081019091526000815290565b905080516000141561252c575092915050565b81511561255e578082604051602001612546929190613936565b60405160208183030381529060405292505050919050565b61256784612b47565b949350505050565b60006001600160e01b0319821663780e9d6360e01b14806107fe57506107fe82612c2e565b60006107fe7f396ff860308092098fcb73b279eb0a11a4fbb964a3d20e6692e62c2e100391a6833560208501356125ce6040870187613c0f565b6040516125dc92919061390a565b6040519081900390206125f560808801606089016135c0565b61260560a0890160808a016135c0565b604080516020810197909752860194909452606085019290925260808401526001600160a01b0390811660a08401521660c082015260e00160405160208183030381529060405280519060200120612c7e565b60008060006126678585612ccc565b9150915061267481612d3c565b509392505050565b60fb5460ff161561269f5760405162461bcd60e51b815260040161090b90613ac9565b610a53838383612f3d565b606060006126b9836002613cb1565b6126c4906002613c85565b67ffffffffffffffff8111156126ea57634e487b7160e01b600052604160045260246000fd5b6040519080825280601f01601f191660200182016040528015612714576020820181803683370190505b509050600360fc1b8160008151811061273d57634e487b7160e01b600052603260045260246000fd5b60200101906001600160f81b031916908160001a905350600f60fb1b8160018151811061277a57634e487b7160e01b600052603260045260246000fd5b60200101906001600160f81b031916908160001a905350600061279e846002613cb1565b6127a9906001613c85565b90505b600181111561283d576f181899199a1a9b1b9c1cb0b131b232b360811b85600f16601081106127eb57634e487b7160e01b600052603260045260246000fd5b1a60f81b82828151811061280f57634e487b7160e01b600052603260045260246000fd5b60200101906001600160f81b031916908160001a90535060049490941c9361283681613d13565b90506127ac565b5083156118a65760405162461bcd60e51b815260206004820181905260248201527f537472696e67733a20686578206c656e67746820696e73756666696369656e74604482015260640161090b565b803b6128f05760405162461bcd60e51b815260206004820152602d60248201527f455243313936373a206e657720696d706c656d656e746174696f6e206973206e60448201526c1bdd08184818dbdb9d1c9858dd609a1b606482015260840161090b565b7f360894a13ba1a3210667c828492db98dca3e2076cc3735a920a3ca505d382bbc80546001600160a01b0319166001600160a01b0392909216919091179055565b6060823b6129905760405162461bcd60e51b815260206004820152602660248201527f416464726573733a2064656c65676174652063616c6c20746f206e6f6e2d636f6044820152651b9d1c9858dd60d21b606482015260840161090b565b600080846001600160a01b0316846040516129ab919061391a565b600060405180830381855af49150503d80600081146129e6576040519150601f19603f3d011682016040523d82523d6000602084013e6129eb565b606091505b5091509150612a138282604051806060016040528060278152602001613e0d60279139612ff5565b95945050505050565b612a258161288c565b6040516001600160a01b038216907fbc7cd75a20ee27fd9adebab32041f755214dbc6bffa90cc0225b39da2e5c2d3b90600090a250565b600054610100900460ff166122865760405162461bcd60e51b815260040161090b90613b41565b600054610100900460ff16612aaa5760405162461bcd60e51b815260040161090b90613b41565b8151612abd9060659060208501906134a5565b508051610a539060669060208401906134a5565b600054610100900460ff16612af85760405162461bcd60e51b815260040161090b90613b41565b60fb805460ff19169055565b600054610100900460ff16612b2b5760405162461bcd60e51b815260040161090b90613b41565b8151602092830120815191909201206101929190915561019355565b6000818152606760205260409020546060906001600160a01b0316612bc65760405162461bcd60e51b815260206004820152602f60248201527f4552433732314d657461646174613a2055524920717565727920666f72206e6f60448201526e3732bc34b9ba32b73a103a37b5b2b760891b606482015260840161090b565b6000612bdd60408051602081019091526000815290565b90506000815111612bfd57604051806020016040528060008152506118a6565b80612c078461302e565b604051602001612c18929190613936565b6040516020818303038152906040529392505050565b60006001600160e01b031982166380ac58cd60e01b1480612c5f57506001600160e01b03198216635b5e139f60e01b145b806107fe57506301ffc9a760e01b6001600160e01b03198316146107fe565b60006107fe612c8b613148565b8360405161190160f01b6020820152602281018390526042810182905260009060620160405160208183030381529060405280519060200120905092915050565b600080825160411415612d035760208301516040840151606085015160001a612cf7878285856131c5565b94509450505050612d35565b825160401415612d2d5760208301516040840151612d228683836132b2565b935093505050612d35565b506000905060025b9250929050565b6000816004811115612d5e57634e487b7160e01b600052602160045260246000fd5b1415612d675750565b6001816004811115612d8957634e487b7160e01b600052602160045260246000fd5b1415612dd75760405162461bcd60e51b815260206004820152601860248201527f45434453413a20696e76616c6964207369676e61747572650000000000000000604482015260640161090b565b6002816004811115612df957634e487b7160e01b600052602160045260246000fd5b1415612e475760405162461bcd60e51b815260206004820152601f60248201527f45434453413a20696e76616c6964207369676e6174757265206c656e67746800604482015260640161090b565b6003816004811115612e6957634e487b7160e01b600052602160045260246000fd5b1415612ec25760405162461bcd60e51b815260206004820152602260248201527f45434453413a20696e76616c6964207369676e6174757265202773272076616c604482015261756560f01b606482015260840161090b565b6004816004811115612ee457634e487b7160e01b600052602160045260246000fd5b14156111645760405162461bcd60e51b815260206004820152602260248201527f45434453413a20696e76616c6964207369676e6174757265202776272076616c604482015261756560f01b606482015260840161090b565b6001600160a01b038316612f9857612f9381609980546000838152609a60205260408120829055600182018355919091527f72a152ddfb8e864297c917af52ea6c1c68aead0fee1a62673fcc7e0c94979d000155565b612fbb565b816001600160a01b0316836001600160a01b031614612fbb57612fbb83826132eb565b6001600160a01b038216612fd257610a5381613388565b826001600160a01b0316826001600160a01b031614610a5357610a538282613461565b606083156130045750816118a6565b8251156130145782518084602001fd5b8160405162461bcd60e51b815260040161090b9190613a1e565b6060816130525750506040805180820190915260018152600360fc1b602082015290565b8160005b811561307c578061306681613d65565b91506130759050600a83613c9d565b9150613056565b60008167ffffffffffffffff8111156130a557634e487b7160e01b600052604160045260246000fd5b6040519080825280601f01601f1916602001820160405280156130cf576020820181803683370190505b5090505b8415612567576130e4600183613cd0565b91506130f1600a86613d80565b6130fc906030613c85565b60f81b81838151811061311f57634e487b7160e01b600052603260045260246000fd5b60200101906001600160f81b031916908160001a905350613141600a86613c9d565b94506130d3565b60006117da7f8b73c3c69bb8fe3d512ecc4cf759cc79239f7b179b0ffacaa9a75d522b39400f6131786101925490565b610193546040805160208101859052908101839052606081018290524660808201523060a082015260009060c0016040516020818303038152906040528051906020012090509392505050565b6000807f7fffffffffffffffffffffffffffffff5d576e7357a4501ddfe92f46681b20a08311156131fc57506000905060036132a9565b8460ff16601b1415801561321457508460ff16601c14155b1561322557506000905060046132a9565b6040805160008082526020820180845289905260ff881692820192909252606081018690526080810185905260019060a0016020604051602081039080840390855afa158015613279573d6000803e3d6000fd5b5050604051601f1901519150506001600160a01b0381166132a2576000600192509250506132a9565b9150600090505b94509492505050565b6000806001600160ff1b038316816132cf60ff86901c601b613c85565b90506132dd878288856131c5565b935093505050935093915050565b600060016132f8846113d4565b6133029190613cd0565b600083815260986020526040902054909150808214613355576001600160a01b03841660009081526097602090815260408083208584528252808320548484528184208190558352609890915290208190555b5060009182526098602090815260408084208490556001600160a01b039094168352609781528383209183525290812055565b60995460009061339a90600190613cd0565b6000838152609a6020526040812054609980549394509092849081106133d057634e487b7160e01b600052603260045260246000fd5b9060005260206000200154905080609983815481106133ff57634e487b7160e01b600052603260045260246000fd5b6000918252602080832090910192909255828152609a9091526040808220849055858252812055609980548061344557634e487b7160e01b600052603160045260246000fd5b6001900381819060005260206000200160009055905550505050565b600061346c836113d4565b6001600160a01b039093166000908152609760209081526040808320868452825280832085905593825260989052919091209190915550565b8280546134b190613d2a565b90600052602060002090601f0160209004810192826134d35760008555613519565b82601f106134ec57805160ff1916838001178555613519565b82800160010185558215613519579182015b828111156135195782518255916020019190600101906134fe565b50613525929150613529565b5090565b5b80821115613525576000815560010161352a565b80356001600160a01b0381168114610c7557600080fd5b600082601f830112613565578081fd5b813567ffffffffffffffff81111561357f5761357f613dc0565b613592601f8201601f1916602001613c54565b8181528460208386010111156135a6578283fd5b816020850160208301379081016020019190915292915050565b6000602082840312156135d1578081fd5b6118a68261353e565b600080604083850312156135ec578081fd5b6135f58361353e565b91506136036020840161353e565b90509250929050565b600080600060608486031215613620578081fd5b6136298461353e565b92506136376020850161353e565b9150604084013590509250925092565b6000806000806080858703121561365c578081fd5b6136658561353e565b93506136736020860161353e565b925060408501359150606085013567ffffffffffffffff811115613695578182fd5b6136a187828801613555565b91505092959194509250565b600080604083850312156136bf578182fd5b6136c88361353e565b9150602083013580151581146136dc578182fd5b809150509250929050565b600080604083850312156136f9578182fd5b6137028361353e565b9150602083013567ffffffffffffffff81111561371d578182fd5b61372985828601613555565b9150509250929050565b60008060408385031215613745578182fd5b61374e8361353e565b946020939093013593505050565b60006020828403121561376d578081fd5b5035919050565b60008060408385031215613786578182fd5b823591506136036020840161353e565b6000602082840312156137a7578081fd5b81356118a681613dd6565b6000806000606084860312156137c6578081fd5b833567ffffffffffffffff808211156137dd578283fd5b6137e987838801613555565b94506020915081860135818111156137ff578384fd5b61380b88828901613555565b94505060408601358181111561381f578384fd5b8601601f8101881361382f578384fd5b80358281111561384157613841613dc0565b8060051b9250613852848401613c54565b8181528481019083860185850187018c101561386c578788fd5b8795505b83861015613895576138818161353e565b835260019590950194918601918601613870565b508096505050505050509250925092565b6000602082840312156138b7578081fd5b813567ffffffffffffffff8111156138cd578182fd5b820160c081850312156118a6578182fd5b600081518084526138f6816020860160208601613ce7565b601f01601f19169290920160200192915050565b8183823760009101908152919050565b6000825161392c818460208701613ce7565b9190910192915050565b60008351613948818460208801613ce7565b83519083019061395c818360208801613ce7565b01949350505050565b7f416363657373436f6e74726f6c3a206163636f756e742000000000000000000081526000835161399d816017850160208801613ce7565b7001034b99036b4b9b9b4b733903937b6329607d1b60179184019182015283516139ce816028840160208801613ce7565b01602801949350505050565b6020808252825182820181905260009190848201906040850190845b81811015613a12578351835292840192918401916001016139f6565b50909695505050505050565b6020815260006118a660208301846138de565b6020808252602c908201527f46756e6374696f6e206d7573742062652063616c6c6564207468726f7567682060408201526b19195b1959d85d1958d85b1b60a21b606082015260800190565b6020808252602c908201527f46756e6374696f6e206d7573742062652063616c6c6564207468726f7567682060408201526b6163746976652070726f787960a01b606082015260800190565b60208082526010908201526f14185d5cd8589b194e881c185d5cd95960821b604082015260600190565b6020808252602e908201527f496e697469616c697a61626c653a20636f6e747261637420697320616c72656160408201526d191e481a5b9a5d1a585b1a5e995960921b606082015260800190565b6020808252602b908201527f496e697469616c697a61626c653a20636f6e7472616374206973206e6f74206960408201526a6e697469616c697a696e6760a81b606082015260800190565b602081526000825160606020840152613ba860808401826138de565b90506020840151601f19848303016040850152613bc582826138de565b9150506040840151151560608401528091505092915050565b838152606060208201526000613bf760608301856138de565b905060018060a01b0383166040830152949350505050565b6000808335601e19843603018112613c25578283fd5b83018035915067ffffffffffffffff821115613c3f578283fd5b602001915036819003821315612d3557600080fd5b604051601f8201601f1916810167ffffffffffffffff81118282101715613c7d57613c7d613dc0565b604052919050565b60008219821115613c9857613c98613d94565b500190565b600082613cac57613cac613daa565b500490565b6000816000190483118215151615613ccb57613ccb613d94565b500290565b600082821015613ce257613ce2613d94565b500390565b60005b83811015613d02578181015183820152602001613cea565b838111156113575750506000910152565b600081613d2257613d22613d94565b506000190190565b600181811c90821680613d3e57607f821691505b60208210811415613d5f57634e487b7160e01b600052602260045260246000fd5b50919050565b6000600019821415613d7957613d79613d94565b5060010190565b600082613d8f57613d8f613daa565b500690565b634e487b7160e01b600052601160045260246000fd5b634e487b7160e01b600052601260045260246000fd5b634e487b7160e01b600052604160045260246000fd5b6001600160e01b03198116811461116457600080fdfe65d7a28e3265b37a6474929f336521b332c1681b933f6cb9f3376673440d862a416464726573733a206c6f772d6c6576656c2064656c65676174652063616c6c206661696c6564a26469706673582212202cd3cb12ccad0f17ebd9129e7866abced2ef45d371f0792180dbba07356e8f7064736f6c63430008040033",
  "linkReferences": {},
  "deployedLinkReferences": {}
}